:1000000080317228080008007E1480310B1F0928F7
:100010000A2870282100111F0E280F2818282000F8
:10002000111F13281428182887314427803170287D
:100030002100111E1C281D2828282000111E2128FF
:100040002228282845088A0044080A0080317028A0
:100050002100911E2C282D2838282000911E31289F
:100060003228382843088A0042080A008031702864
:100070002100951F3C283D2846282000951F412837
:10008000422846288631ED26803170282100151F30
:100090004A284B2854282000151F4F285028542840
:1000A0008631FF26803170282100121C58285928DB
:1000B00062282000121C5D285E28622887311127E3
:1000C000803170282100111D6628672870282000C3
:1000D000111D6B286C2870288731232780317028E8
:1000E0007E10090080317428F601F701F801F9014A
:1000F00020308400003085002D3087318B278031FF
:10010000A030840000308500103087318B2780318B
:100110007E10200080318C28853100258031B83058
:100120002000E8000B30E900B830EA000B30EB00AB
:100130008B170B17E530F4000730F5008731C72720
:1001400080316630F4000630F5008731C1278031F8
:10015000DF30F4000730F5008731BB2780314F30A6
:10016000F4000630F5008731B527803100302000DB
:10017000DB00DC008231C122803100302000DB0056
:10018000DC008431C824803100302000DB00DC003A
:1001900084319024803100302000DB00DC00843189
:1001A0005824803129302000DF009630DE007F3077
:1001B000890BD828DE0BD828DF0BD82820006B0845
:1001C000F5006A08F4008731D32780318731FA2798
:1001D000803120006908F5006808F4008731D927CC
:1001E00080318731FD278031013020002902903095
:1001F000031928020318FD28FE280129E201E30162
:100200002A2905302902DC3003192802031C092998
:100210000A29182906302902413003192802031837
:100220001229132918290E30E2000630E3002A298A
:100230000C302902813003192802031C20292129AE
:1002400026298030E2000C30E3002A292908E30047
:100250002808E20001302F02903003192E02031803
:10026000322933293629E001E1015F2905302F02C7
:10027000DC3003192E02031C3E293F294D2906308C
:100280002F02413003192E020318472948294D290E
:100290000E30E0000630E1005F290C302F02813083
:1002A00003192E02031C552956295B298030E000D2
:1002B0000C30E1005F292F08E1002E08E000620801
:1002C000F23EEC00F930633DED006008F23EEE00D6
:1002D000F930613DEF006D08803ADE0080305E024B
:1002E000031D742901306C02031C77297829962993
:1002F00072302000CD000630CE006D08D0006C08B2
:10030000CF0083312523803120004E08D6004D08D0
:10031000D500FF30D7000330D800853198258031D3
:1003200020005608E5005508E400BA292000ED1F1A
:100330009A299B29B8290E30CD000630CE006D08D1
:10034000D0006C08CF0083312523803120004E0877
:10035000D6004D08D500FF30D7000330D8008531D6
:100360009825803120005608E5005508E400BA2998
:10037000E401E5016F08803ADE0080305E02031D73
:10038000C32901306E02031CC629C729E529723032
:100390002000CD000630CE006F08D0006E08CF00E0
:1003A00083312523803120004E08D6004D08D5002A
:1003B000FF30D7000330D8008531982580312000E8
:1003C0005608E7005508E600092A2000EF1FE92932
:1003D000EA29072A0E30CD000630CE006F08D00083
:1003E0006E08CF0083312523803120004E08D600CF
:1003F0004D08D500FF30D7000330D800853198254F
:10040000803120005608E7005508E600092AE60179
:10041000E7010E180C2A0D2A152A0C1B102A112A86
:10042000152A853156258031402A8C1B182A192A15
:10043000212A8C191C2A1D2A212A853177258031F1
:10044000402A6708DC006608DB008231C122803167
:1004500020006508DC006408DB008431C82480319A
:1004600020006508DC006408DB00843190248031C2
:1004700020006708DC006608DB00843158248031E6
:1004800020000C1F442A452A642A0E18482A492AAB
:10049000642A6908803ADE0091305E02031D522A08
:1004A000F83068020318552A562A642A01302000C1
:1004B000E8070030E93D0B302000DE006230890B98
:1004C0005F2ADE0B5F2A000020008C1D682A692A43
:1004D000882A8C1B6C2A6D2A882A6908803ADE00DB
:1004E00088305E02031D762AFD306802031C792ADB
:1004F0007A2A882AFF302000E807FF30E93D0B30D8
:100500002000DE006230890B832ADE0B832A000084
:1005100020008C1F8C2A8D2AA32A8C19902A912ABC
:10052000A32A6B08803ADE008F305E02031D9A2AF0
:10053000A0306A0203189D2A9E2AA32A01302000B7
:10054000EA070030EB3D20000E1CA72AA82ADE286F
:100550000C1BAB2AAC2ADE286B08803ADE008930FF
:100560005E02031DB52AC5306A02031CB82AB92AE7
:10057000DE28FF302000EA07FF30EB3DDE28803127
:10058000722820005C08803ADD0080305D02031D87
:10059000CB2A01305B02031CCE2ACF2AFB2AFF3074
:1005A0002000CD000330CE005C08D0005B08CF00F7
:1005B00083312523823120004E08D6004D08D50016
:1005C0000030D7007D30D800853198258231200059
:1005D0005608DC005508DB0022008E160E122000A3
:1005E0005C08F5005B08F400873191278231873180
:1005F000F7278231242B2000DC1FFF2A002B202B21
:10060000FF30CD000330CE005C08D0005B08CF0087
:1006100083312523823120004E08D6004D08D500B5
:100620000030D7008330D8008531982582312000F2
:100630005608DC005508DB0022008E120E16EF2A49
:1006400022008E160E16EF2A08002000D201CE1FBF
:100650002A2B2B2B322BCD09CE09CD0A0319CE0A1A
:10066000D201D20AD01F352B362B3F2BCF09D00910
:10067000CF0A0319D00A0130F4007408D206D3015E
:10068000D4014D084E040319462B472B762BD1017C
:10069000D10A532B0130CD35CE0D890B4B2B0130B8
:1006A000F4007408D107CE1F562B572B4A2B01306C
:1006B000D335D40D890B582B4E085002031D622BE5
:1006C0004D084F02031C652B662B6B2B4D08CF0288
:1006D0004E08D03B53140130CE36CD0C890B6C2B19
:1006E0000130D102031D752B762B572B52080319AD
:1006F0007A2B7B2B802BD309D409D30A0319D40A74
:100700005408CE005308CD000800220090018F014C
:100710008C018D018E01073021009000CF308C00BC
:10072000E3308D000F308E0011308F0023008F01D9
:100730008E018D010730900027308C0024008F013E
:1007400090018D018C018E012100971725009001E9
:100750008C018D018E018F01FF3026008C00FF304F
:100760008D00FF308E00FF308F00073090003F304B
:1007700027008C00F0308D00FF308E00FF308F009E
:100780000D303C00BD0013309A0012309900243027
:100790003D009C001E30AA0009303C009C001B302C
:1007A0003D0094001A30AD000E303C00B9001D3001
:1007B0003D00AB00193095001F30A90008303C0007
:1007C0009B000800210091121F30F4000430F50056
:1007D00087319D278331210011123430F400053018
:1007E000F500873197278331083023009F00903030
:1007F0009D0024309E0044309B009C010330F40097
:100800000030F5008731A9278331EF30F40007303D
:10081000F5008731A3278331F330F4000730F5006A
:100820008731AF2783312000CA01F901F801083070
:10083000CC00F701F601CB012100911608007708E2
:10084000203E86008701810123001D1D282C292CB4
:10085000342C7708203E86008701811420003D0853
:100860008A003C080A00843123009D1C382C392C56
:10087000442C7708203E86008701011520003B08A4
:100880008A003A080A0084317708203E86008701F2
:10089000010803194C2C4D2C542C200039088A00D7
:1008A00038080A008431572C8631372684310800F5
:1008B00020005C08803ADD0080305D02031D622C60
:1008C00001305B02031C652C662C722C22008D11FA
:1008D0000D1520005C08F5005B08F4008531D32578
:1008E00084318F2C2000DC1F762C772C8B2CFF3052
:1008F000D500FF30D6005C08D8005B08D7008531F2
:100900009825843120005608DC005508DB002200C1
:100910008D150D11692C22008D150D15692C0800FF
:1009200020005C08803ADD0080305D02031D9A2CB7
:1009300001305B02031C9D2C9E2CAA2C22008F17D9
:100940000F1320005C08F5005B08F4008531EC25EE
:100950008431C72C2000DC1FAE2CAF2CC32CFF3001
:10096000D500FF30D6005C08D8005B08D700853181
:100970009825843120005608DC005508DB00220051
:100980008F130F17A12C22008F170F17A12C08000F
:1009900020005C08803ADD0080305D02031DD22C0F
:1009A00001305B02031CD52CD62CE22C22008E13C6
:1009B0000E1720005C08F5005B08F4008631052660
:1009C0008431FF2C2000DC1FE62CE72CFB2CFF30B1
:1009D000D500FF30D6005C08D8005B08D700853111
:1009E0009825843120005608DC005508DB002200E1
:1009F0008E170E13D92C22008E170E17D92C080033
:100A000083318523853187315E2785318731EB2717
:100A1000853186319326853186317D268531863133
:100A2000C92685318731752785318731352785314D
:100A300086311E2685318631B72685318631DB2603
:100A400085318631A52685318731802785318531ED
:100A5000B825853187315227853187316A2785311D
:100A60008331E22385310800083020004C0203184E
:100A70003A2D3B2D532D7808A83E860087010108AA
:100A800023009A000130F0007008F807083078025F
:100A9000031C4B2D4C2D4D2DF8010130F00070083A
:100AA0002000CC07552D210011120800FF30200036
:100AB000DB000330DC008431C8248531FF302000A6
:100AC000DB000330DC008431582485310130200004
:100AD000DB00FC30DC008231C12285310130200096
:100AE000DB00FC30DC0084319024853108000130CB
:100AF0002000DB00FC30DC008431C824853101306B
:100B00002000DB00FC30DC00843158248531FF30CC
:100B10002000DB000330DC008231C1228531FF3050
:100B20002000DB000330DC00843190248531080094
:100B30002000D901DA01551C9E2D9F2DA32D5708A9
:100B4000D9075808DA3D0130D735D80D890BA42DC7
:100B50000130D636D50C890BA92D55085604031D36
:100B6000B22DB32D9B2D5A08D6005908D500080088
:100B70003B009C019D0140309E0001309F000130F0
:100B8000A000920191010B309400B73093009C308B
:100B900096003F3095009801033097009A01990123
:100BA00080309B00080075082000CE007408CD003E
:100BB000CE36CD0CCE36CD0C4D082C009B007408E3
:100BC00003392000CD000530CD35FF3E031DE42D57
:100BD0004D352C009A00080075082000CE007408DE
:100BE000CD00CE36CD0CCE36CD0C4D082C00950068
:100BF000740803392000CD000530CD35FF3E031DBC
:100C0000FD2D4D352C009400080075082000CE0005
:100C10007408CD00CE36CD0CCE36CD0C4D082C0050
:100C20009800740803392000CD000530CD35FF3E13
:100C3000031D162E4D352C00970008003B00AC011B
:100C4000AD014030AE00AF01B001A201A1010B30F7
:100C5000A400B730A3009C30A6003F30A500A80137
:100C60000330A700AA01A9018030AB000800770873
:100C7000A03E860087012300190881000130F000A2
:100C80007008F70708307702031C472E482E492EBC
:100C9000F7010130F00070082000CB070800710850
:100CA0002000AB007008AA002D082B02031D5A2E4D
:100CB0002C082A0203185D2E5E2E5F2E652E2C084E
:100CC0002A02A8002D082B3BA9000800710820006B
:100CD000B1007008B00033083102031D712E3208D4
:100CE00030020318742E752E762E7C2E32083002B8
:100CF000AE003308313BAF0008003B00BC01BD0132
:100D0000BE01BF01C001B201B1017D30B400B30129
:100D10007D30B600B501B8013F30B700BA01B90166
:100D20009030BB00080084302600930092019101AE
:100D300094010230F4000030F5008731B527863188
:100D400020009513210095170800853025009B0091
:100D50009A0199019C01FF30F4000F30F5008731B2
:100D6000BB27863120001513210015170800843099
:100D700025009700960195019801FE30F4000F3090
:100D8000F5008731C127863120001210210012148E
:100D90000800853025009300920191019401FD30F7
:100DA000F4000F30F5008731C7278631200011117C
:100DB000210011150800A0302900910092018E0138
:100DC0008F010130900021001117FC30F4000F302A
:100DD000F5008731CD2786310800200095132600C5
:100DE0001108F2001208F3007308F1007208F00015
:100DF000200035088A0034080A00863108002000E7
:100E0000151325001908F2001A08F3007308F10001
:100E10007208F000200037088A0036080A0087317F
:100E200008002000121025001508F2001608F30033
:100E30007308F1007208F000200041088A004008A1
:100E40000A00873108002000111125001108F20066
:100E50001208F3007308F1007208F00020003F0848
:100E60008A003E080A0087310800013029009700F7
:100E7000203096009801FF309400930120009110DB
:100E8000D0302900950008002000111348084904BB
:100E900003194B2F4C2F512F49088A0048080A008C
:100EA0008731080020009B01990198011110190851
:100EB000C7001808C60011309A00080070302100E1
:100EC0009B0080309C009A019D011C1F682F692F98
:100ED000652F080090302C009C00FF309B00C03034
:100EE0009A00CF3025009F05080090302C00990013
:100EF000FF309800C0309700F33025009F050800B0
:100F000090302C009600FF309500C0309400FC30EB
:100F100025009F050800640080010131890B8C2F9A
:100F2000003475083B00B4007408B300080075086D
:100F30002000C5007408C400080075082000C30024
:100F40007408C200080075082000BB007408BA00CD
:100F5000080075082000BD007408BC000800750872
:100F60002000B9007408B800080075082000B5001A
:100F70007408B400080075082000B7007408B600B3
:100F8000080075082000C1007408C000080075083A
:100F90002000BF007408BE00080075082000C900CA
:100FA0007408C800080075083B00A4007408A3007A
:100FB000080075083B00940074089300080071084D
:100FC0002000AD007008AC00080071082000B300DC
:100FD0007008B200080016302100990008002300B4
:100FE0001D121D16080086313726873108003B0088
:100FF000BF1708003B00AF1708003B009F17080011
:081FF8000800080008000800C1
:020000040001F9
:08000000FF3FFF3FFF3FFF3F00
:04000E00E43FFF1FAD
:00000001FF
