:1000000080314828080008007E1480318B1D0928A3
:100010000A2812280B1C0D280E281228953181253C
:10002000803146280B1F1528162846282100111F4D
:100030001A281B2824282000111F1F2820282428C4
:100040009331CD23803146282100111E28282928EC
:1000500035282000111E2D282E28352822004F0873
:100060008A004E080A00803146282100911E392856
:100070003A2846282000911E3E283F284628220084
:100080004D088A004C080A00803146287E1009007D
:1000900080314A28FC01FD012100EC01ED01EE0157
:1000A000EF01203084000130850035309331072383
:1000B00080317E10200080315D2896312A268031E3
:1000C000B8302100E0000B30E100B830E2000B3026
:1000D000E3008B170B170D302000A0001330A10098
:1000E00093316723803123302000A0001530A10018
:1000F00093317023803116302000A0001330A1000E
:1001000093317923803142302000A0001530A100C6
:1001100093318223803100302000AF00B00097314E
:100120009C27803100302000AF00B000963152266D
:10013000803100302000AF00B00096318A26803137
:1001400000302000AF00B0009631C2268031293047
:100150002100D7009630D6007F30890BAD28D60B12
:10016000AD28D70BAD289231FD22803140302000E0
:10017000DF000030DE000030DD000030DC008431C4
:100180003C24803120005F08EB005E08EA005D0837
:10019000E9005C08E8003F30EF008030EE000030FE
:1001A000ED000030EC008931BD21803120006B086A
:1001B0002100E70020006A082100E600200069080D
:1001C0002100E500200068082100E4002100630808
:1001D0002000A100210062082000A0009331282304
:1001E00080319231FA228031210061082000A10083
:1001F000210060082000A00093311F23803192313C
:10020000F722803122003A08F23E2100D800F9306E
:1002100022003B3D2100D90022004008F23E21008F
:10022000DA00F9302200413D2100DB0058082000AF
:10023000A000210059082000A100890D893B8909EF
:10024000A200A3000130873150278031200023080D
:10025000B5002208B4002108B3002008B200210034
:1002600067082000B100210066082000B0002100CE
:1002700065082000AF00210064082000AE008D3129
:10028000C525803120003108CF003008CE002F086E
:10029000CD002E08CC0021005A082000A00021002B
:1002A0005B082000A100890D893B8909A200A300F9
:1002B000013087315027803120002308B500220803
:1002C000B4002108B3002008B20021006708200014
:1002D000B100210066082000B00021006508200060
:1002E000AF00210064082000AE008D31C5258031AB
:1002F00020003108CB003008CA002F08C9002E08A2
:10030000C8008B31BD23803120004B08DF004A0834
:10031000DE004908DD004808DC00883141208031DA
:1003200020005D082100E90020005C082100E800B1
:1003300058082000A000210059082000A100890DC4
:10034000893B8909A200A300013087315027803101
:1003500020002308B5002208B4002108B3002008BB
:10036000B200210067082000A300210066082000D9
:10037000A200210065082000A100210064082000DF
:10038000A0009331C123803120002308B10022084E
:10039000B0002108AF002008AE008D31C5258031A6
:1003A00020003108CF003008CE002F08CD002E08E5
:1003B000CC0021005A082000A00021005B0820008A
:1003C000A100890D893B8909A200A3000130873172
:1003D0005027803120002308B5002208B4002108EE
:1003E000B3002008B200210067082000B1002100FE
:1003F00066082000B000210065082000AF00210041
:1004000064082000AE008D31C52580312000310800
:10041000CB003008CA002F08C9002E08C8008B3155
:10042000BD23803120004B08DF004A08DE00490868
:10043000DD004808DC0088314120803120005D0863
:100440002100EB0020005C082100EA006908803AE6
:10045000D60083305602031D2F2A85306802031C04
:10046000322A332A392AE8302100E8000330E90033
:100470006D2A21006908803AD6007F305602031D9C
:10048000432AED306802031C462A472A592A2100D4
:100490006908803AD60080305602031D512A143074
:1004A00068020318542A552A592A2100E801E90153
:1004B0006D2A21006908803AD6007E305602031D5D
:1004C000632A0C3068020318662A672A6D2A0C30EA
:1004D0002100E800FE30E9006D2A21006B08803A17
:1004E000D60083305602031D772A85306A02031C2A
:1004F0007A2A7B2A812AE8302100EA000330EB00C7
:10050000B52A21006B08803AD6007F305602031DC1
:100510008B2AED306A02031C8E2A8F2AA12A210021
:100520006B08803AD60080305602031D992A143099
:100530006A0203189C2A9D2AA12A2100EA01EB01E4
:10054000B52A21006B08803AD6007E305602031D82
:10055000AB2A0C306A020318AE2AAF2AB52A0C3037
:100560002100EA00FE30EB00B52A21006908803A3C
:10057000D60080305602031DBF2A01306802031CDA
:10058000C22AC32AE82A84302000A0000330A10038
:10059000210069082000A300210068082000A200B3
:1005A00097313C27803120002108AA002008A900AB
:1005B000FF30AB000330AC00953161258031200065
:1005C0002A082100DD00200029082100DC00142B6E
:1005D0002100E91FEC2AED2A122BF4302000A000A4
:1005E0000130A100210069082000A3002100680853
:1005F0002000A20097313C27803120002108AA006A
:100600002008A900FF30AB000330AC009531612514
:10061000803120002A082100DD0020002908210067
:10062000DC00142BDC01DD016B08803AD600803041
:100630005602031D1D2B01306A02031C202B212BA7
:10064000462B84302000A0000330A10021006B085D
:100650002000A30021006A082000A20097313C2757
:10066000803120002108AA002008A900FF30AB003B
:100670000330AC0095316125803120002A0821002B
:10068000DF00200029082100DE00722B2100EB1F73
:100690004A2B4B2B702BF4302000A0000130A1001E
:1006A00021006B082000A30021006A082000A2009E
:1006B00097313C27803120002108AA002008A9009A
:1006C000FF30AB000330AC00953161258031200054
:1006D0002A082100DF00200029082100DE00722BFB
:1006E000DE01DF0120008C19762B772B7F2B8C1BF2
:1006F0007A2B7B2B7F2B9531C3258031B72B0C1B9D
:10070000822B832B8B2B0E18862B872B8B2B9531D3
:10071000A2258031B72B21005F082000B000210006
:100720005E082000AF0097319C27803121005D08D2
:100730002000B00021005C082000AF009631522656
:10074000803121005D082000B00021005C082000FD
:10075000AF0096318A26803121005F082000B0006A
:1007600021005E082000AF009631C22680312000B3
:100770000C1FBB2BBC2BDC2B0E18BF2BC02BDC2B78
:1007800021006108803AD60091305602031DCA2B21
:10079000F83060020318CD2BCE2BDC2B013021006A
:1007A000E0070030E13D0B302100D6006230890BBC
:1007B000D72BD60BD72B000020000E1CE02BE12BF3
:1007C000012C0C1BE42BE52B012C21006108803A45
:1007D000D60088305602031DEF2BFD306002031C4B
:1007E000F22BF32B012CFF302100E007FF30E13D1D
:1007F0000B302100D6006230890BFC2BD60BFC2B72
:10080000000020008C1D052C062C1D2C8C1B092C97
:100810000A2C1D2C21006308803AD6008F30560226
:10082000031D142CA03062020318172C182C1D2C49
:1008300001302100E2070030E33D20008C1F212C15
:10084000222CE6288C19252C262CE628210063086A
:10085000803AD60089305602031D302CC530620222
:10086000031C332C342CE628FF302100E207FF3034
:10087000E33DE6288031482820005F082100AB00D6
:1008800020005E082100AA0020005D082100A900C8
:1008900020005C082100A8002B08C3002A08C20021
:1008A0002908C1002808C000003040052000E000F1
:1008B0000030210041052000E10080302100420588
:1008C0002000E2007F30210043052000E30080305B
:1008D00062067F300319630660046104031D712CF6
:1008E000722CA42C20005F08CB005E08CA005D08B3
:1008F000C9005C08C8005F08B1005E08B0005D0870
:10090000AF005C08AE005F08B5005E08B4005D088B
:10091000B3005C08B2008D31C52584312000310858
:10092000CF003008CE002F08CD002E08CC008B3130
:10093000BD23843120004B08DF004A08DE0049084F
:10094000DD004808DC004F2F2100C31BB62C4308F4
:10095000031DB52C4208031DB52C4108031DB52C01
:10096000013040020318B52CB62CEF2CFF302100CB
:1009700040052000E000FF30210041052000E1009B
:10098000FF30210042052000E2007F3021004305B6
:100990002000E3006308620461046004031DD12C9D
:1009A000D22CD32C4F2F2100C31FD72CD82CEF2CA7
:1009B00021302200B8000030B90004302000A0002F
:1009C0009830A10094313724843120002308DF00BF
:1009D0002208DE002108DD002008DC004F2F210066
:1009E00040082000E000210041082000E100210033
:1009F00042082000E200210043082000E3001730F5
:100A0000E400E337E20CE10CE00CE40B012D630899
:100A10002100BB00200062082100BA00200061080C
:100A20002100B900200060082100B8003B083A040A
:100A300039043804031D1D2D1E2D622D0030A70022
:100A40000030A6000030A5000030A400362D013093
:100A5000C035C10DC20DC30D890B282D0130A4076F
:100A60000030A53D0030A63D0030A73DC21F392D06
:100A70003A2D272DFF302000E000FF30E100FF304D
:100A8000E200FF30E300210024082000E0072100FD
:100A900025082000E13D210026082000E23D21003C
:100AA00027082000E33D60082100B802200061080B
:100AB0002100B93B200062082100BA3B20006308F6
:100AC0002100BB3B8130B807FF30B93DFF30BA3D54
:100AD000FF30BB3D00302000E0000030E1008030FE
:100AE000E2000030E300FF30210040052000E40078
:100AF000FF30210041052000E5007F302100420544
:100B00002000E6000030210043052000E7006408D3
:100B1000E0046508E1046608E2046708E30463088A
:100B20002100C300200062082100C20020006108EB
:100B30002100C100200060082100C000381CA12D48
:100B4000A22DAA2D4008C0074108C13D4208C23D60
:100B50004308C33D01302000E0002100BB37BA0C40
:100B6000B90CB80C2000E00BAD2D21004008C007E7
:100B70004108C13D4208C23D4308C33D0030A300C7
:100B80000030A2000030A1000030A0002308AF0018
:100B90002208AE002108AD002008AC000130BF00E3
:100BA0000030BE000030BD000030BC00542E3C08B8
:100BB00020072000E00021003D08213D2000E10049
:100BC00021003E08223D2000E20021003F08233D95
:100BD0002000E30063082100B30020006208210028
:100BE000B200200061082100B1002000600821004F
:100BF000B0004308803A2000E00021003308803A2A
:100C0000200060022100031D0F2E32084202031D46
:100C10000F2E31084102031D0F2E30084002031C25
:100C2000122E132E452E3C0830072000E000210034
:100C30003D08313D2000E10021003E08323D20000A
:100C4000E20021003F08333D2000E300630821005B
:100C5000A300200062082100A200200061082100FA
:100C6000A100200060082100A0003008C002310867
:100C7000C13B3208C23B3308C33B3C08AC073D08CC
:100C8000AD3D3E08AE3D3F08AF3D4008C0074108BE
:100C9000C13D4208C23D4308C33D0130BF36BE0CD2
:100CA000BD0CBC0C890B4E2E3F083E043D043C0499
:100CB000031D5B2E5C2ED72D4308420441044004E3
:100CC0000319632E642EE02E3F30B7008030B6004B
:100CD0000030B5000030B40037082000A300210028
:100CE00036082000A200210035082000A1002100C4
:100CF00034082000A0003F30A7008030A60000305C
:100D0000A5000030A400893132218431031C892ED2
:100D10008A2EE02E3F302100B7008030B600003030
:100D2000B5000030B4003F302000A3008030A200A6
:100D30000030A1000030A000210037082000A700EB
:100D4000210036082000A600210035082000A5005B
:100D5000210034082000A400893132218431031895
:100D6000B22EB32EBD2E02302100AC070030AD3DB7
:100D70000030AE3D0030AF3DE02E013021002C05AB
:100D80002000E000003021002D052000E1000030AF
:100D900021002E052000E200003021002F05200058
:100DA000E30060082100AC07200061082100AD3D90
:100DB000200062082100AE3D200063082100AF3D05
:100DC00021002C082000E00021002D082000E10077
:100DD00021002E082000E20021002F082000E3005F
:100DE0000130E400E337E20CE10CE00CE40BF22EFE
:100DF000003060072100C00000302000613D21006C
:100E0000C10000302000623D2100C2003F302000C0
:100E1000633D2100C30038082000E00021003908AC
:100E20002000E10021003A082000E20021003B08F8
:100E30002000E3001730E035E10DE20DE30D890BF2
:100E40001B2F60082100C007200061082100C13D60
:100E5000200062082100C23D200063082100C33D3C
:100E60004308AB004208AA004108A9004008A800B6
:100E70002B08B7002A08B6002908B5002808B400D6
:100E800037082000DF00210036082000DE002100A6
:100E900035082000DD00210034082000DC000800B7
:100EA0002000A80028080319562F572F6B2FA31FC7
:100EB0005A2F5B2F6B2F2009AA002109AB002209B2
:100EC000AC002309AD00AA0A0319AB0A0319AC0A46
:100ED0000319AD0A732F2308AD002208AC002108C6
:100EE000AB002008AA002308220421042004031DCB
:100EF0007A2F7B2F842F0030A3000030A200003017
:100F0000A1000030A000FA2F9630A900922F0130E6
:100F1000A4002408A9070130AD36AC0CAB0CAA0C18
:100F2000890B8C2FFE302D05031D972F982F872FAF
:100F3000AC2F0130A4002408A9070130AA07003013
:100F4000AB3D0030AC3D0030AD3D0130AD36AC0CBA
:100F5000AB0CAA0C890BA62FFF302D05031DB12F5A
:100F6000B22F992FBC2F0130A9020130AA35AB0D49
:100F7000AC0DAD0D890BB62FAC1BBF2FC02FC62FEC
:100F8000023029020318C52FC62FB32F2918C92FE5
:100F9000CA2FD22FFF30AA05FF30AB057F30AC053A
:100FA000FF30AD050310A90C2908A400A501A60176
:100FB000A7011830A435A50DA60DA70D890BDA2FB2
:100FC0002408AA042508AB042608AC042708AD04AD
:100FD00028080319EC2FED2FF22FA31FF02FF12F6C
:100FE000F22FAD172D08A3002C08A2002B08A1009A
:100FF0002A08A00008001630210099000800080007
:1010000023001D121D1608007D08203E86000130B9
:101010008700810123001D1D0E280F281B287D0835
:10102000203E860001308700811422004B088A0090
:101030004A080A00883123009D1C1F2820282C28DC
:101040007D08203E860001308700011522004908F6
:101050008A0048080A0088317D08203E8600013059
:10106000870001080319352836283D282200470843
:101070008A0046080A008831402894317224883159
:101080000800031020005E0D5F0DE5006508031DDC
:101090004A284B2854280030DF000030DE000030A2
:1010A000DD000030DC00B1285C08E0005D08E100F4
:1010B0005E08E2005F08E3001F30E336E20CE10C5B
:1010C000E00C890B5D286008E400DE17FF30DC05CA
:1010D000FF30DD05FF30DE050030DF059630E5022C
:1010E000E51F732874288C286508803A973E0318FA
:1010F0007A287B287C284B280130DF36DE0CDD0C7B
:10110000DC0C890B7D280130E0006008E507031D39
:101110008A288B287C28A12820306502031C91286E
:1011200092289C284B280130DC35DD0DDE0DDF0DCB
:10113000890B94280130E5026508031DA028A12829
:10114000932864080319A528A628B128DC09DD091D
:10115000DE09DF09DC0A0319DD0A0319DE0A0319B7
:10116000DF0A0800220090018F018C018D018E01A1
:10117000073021009000CF308C00E3308D000F301D
:101180008E0011308F0023008F018E018D010730FA
:10119000900027308C0024008F0190018D018C017C
:1011A0008E0121009717250090018C018D018E0181
:1011B0008F01FF3026008C00FF308D00FF308E0045
:1011C000FF308F00073090003F3027008C00F03058
:1011D0008D00FF308E00FF308F0016109610151016
:1011E00095141414941019119911181198151715B4
:1011F0009711F6302000A0001230A1009331672330
:10120000883102302000A0000030A100933170230B
:10121000883103302000A0000030A10093317923F1
:101220008831FF302000A0000730A10093318223D5
:1012300088318B151E303D00AA000D303C00BD00EA
:101240001B303D0094001A30AD000E303C00B90058
:101250001D303D00AB001930950024309C001F303C
:10126000A9000800003020002005A800003021055A
:10127000A90080302205AA007F302305AB002B088F
:101280002A0429042804031D462947294F29003030
:10129000A3000030A2000030A1000030A000003008
:1012A0002405A80000302505A90080302605AA00E5
:1012B0007F302705AB002B082A0429042804031DCE
:1012C000622963296B290030A7000030A600003096
:1012D000A5000030A400A31F6E296F2987290030C4
:1012E000A8000030A9000030AA008030AB00200820
:1012F000A8022108A93B2208AA3B2308AB3B2B08E4
:10130000A3002A08A2002908A1002808A000A71FFE
:101310008A298B29A3290030A8000030A9000030B9
:10132000AA008030AB002408A8022508A93B2608A3
:10133000AA3B2708AB3B2B08A7002A08A6002908D0
:10134000A5002808A4008030A3068030A70627083F
:101350002302031DB52926082202031DB5292508ED
:101360002102031DB529240820020318B829B92930
:10137000BB290310BC290314080020006F08803922
:101380002100CD0020006F352100D4002000EE1F89
:10139000CA29CB29CD29210054142100540803194E
:1013A000D229D329E529540A031DD729D829E129AF
:1013B00000302000EF000030EE000030ED00003083
:1013C000EC002000EE17EF01EE2900302000EF00C6
:1013D0000030EE000030ED000030EC006B0880398A
:1013E0002100C4004408CD0620006B352100D50043
:1013F0002000EA1FFC29FD29FF29210055142100A6
:1014000055080319042A052A172A550A031D092A13
:101410000A2A132A00302000EB000030EA000030D6
:10142000E9000030E8002000EA17EB01202A003034
:101430002000EB000030EA000030E9000030E80056
:101440006B086A0469046804031D272A282A432AB2
:101450000030EF000030EE000030ED000030EC0016
:101460008030EE047F30EF0421004D08C4004408B2
:101470002000EF046F08EB006E08EA006D08E90039
:101480006C08E800BC2B21005408031D482A492A97
:10149000532A00302000EB000030EA000030E90061
:1014A0000030E800BC2B5408C400C5014508C70043
:1014B00055084402C600031CC70346087F3ECE0001
:1014C0000030473DCF0020006F082100CC002000F5
:1014D0006E082100CB0020006D082100CA0020000A
:1014E0006C082100C90000302000EF000030EE0041
:1014F0000030ED000030EC0000302100D30000305F
:10150000D2000030D1000030D000D501D92A5508D2
:1015100003198B2A8C2AAA2A0130C935CA0DCB0D92
:10152000CC0D890B8D2A01302000EC35ED0DEE0D30
:10153000EF0D890B942A2100D31F9F2AA02AA22AEB
:1015400020006C1401302100D035D10DD20DD30D07
:10155000890BA32A20006B0821004C02031DC02A1E
:1015600020006A0821004B02031DC02A20006908E0
:1015700021004A02031DC02A2000680821004902F8
:10158000031CC32AC42AD52A531720006808210047
:10159000C902200069082100CA3B20006A08210016
:1015A000CB3B20006B082100CC3B0130C400440839
:1015B000D5071A305502031CDE2ADF2A872A4C0879
:1015C0004B044A0449040319E62AE72A032B501462
:1015D000032B0130EC35ED0DEE0DEF0D890BEA2AF2
:1015E0002100D31FF42AF52AF72A20006C140130B9
:1015F0002100D035D10DD20DD30D890BF82AFF3043
:10160000CE07FF30CF3D2000EE1F072B082BE92A25
:101610002100D501D31F0D2B0E2B2C2BFF30500595
:10162000C400FF305105C500FF305205C6007F30B1
:101630005305C70047084604450444040319212BF9
:10164000222B262B2100D501D50A2C2B20006C1C27
:101650002A2B2B2B2C2B222B210055080319312B45
:10166000322B6A2B01302000EC070030ED3D0030BA
:10167000EE3D0030EF3D6F1C3E2B3F2B6A2B6C087C
:101680002100C40020006D082100C50020006E0864
:101690002100C60020006F082100C7000130C800EB
:1016A000C737C60CC50CC40CC80B502B470820000C
:1016B000EF00210046082000EE0021004508200030
:1016C000ED00210044082000EC0001302100CE078D
:1016D0000030CF3D21004F08803AC40080304402E2
:1016E000031D742BFF304E02031C772B782B862BA7
:1016F000FF302100CE000030CF0000302000EF008E
:101700000030EE000030ED000030EC0021004F080A
:10171000803AC40080304402031D902B01304E02F9
:101720000318932B942BA22B2100CE01CF01003064
:101730002000EF000030EE000030ED000030EC0043
:101740002100CD0121004E08D400541CA82BA92B48
:10175000AC2B2000EE17B12B7F30C40044082000D2
:10176000EE05210054362000EF0021004D08C40092
:1017700044082000EF043A2A080020004B08803972
:10178000D8004B35DA00CA1FC62BC72BC82B5A14FA
:101790005A080319CC2BCD2BDD2B5A0A031DD12B54
:1017A000D22BDA2B0030CB000030CA000030C90049
:1017B0000030C800CA17CB01E52B0030CB00003049
:1017C000CA000030C9000030C8004F088039D90075
:1017D000590858060319ED2BEE2BEF2B58174F35F0
:1017E000D900CE1FF42BF52BF62B591459080319E9
:1017F000FA2BFB2B0B2C590A031DFF2B002C082C5A
:101800000030CF000030CE000030CD000030CC00E2
:10181000CE17CF01132C0030CF000030CE000030A7
:10182000CD000030CC005A0859020318182C192C8E
:101830003F2C581F1C2C1D2C212C8030D000500810
:10184000D8065A08DB005908DA005B08D9004808B6
:10185000DB004C08C8005B08CC004908DB004D08E1
:10186000C9005B08CD004A08DB004E08CA005B08CF
:10187000CE004B08DB004F08CB005B08CF00DB013C
:101880005908D000D1015108D3005A085002D200A3
:10189000031CD3035308803AD40080305402031D44
:1018A000532C1A305202031C562C572C892C200022
:1018B0004B084A0449044804031D5F2C612C013085
:1018C000622C0030DB000030CB000030CA0000305A
:1018D000C9000030C8005908DA00902C5B1C712C3C
:1018E000722C762C5B360138DB00782C0310DB0C75
:1018F000481C7B2C7C2C7D2CDB170130D000CB3797
:10190000CA0CC90CC80CD00B7F2C0130D000500879
:10191000DA07200059085A02031C8F2C902C6E2CD9
:10192000581B932C942CCA2C5A08031D982C992CC4
:10193000A22C0030CB000030CA000030C9000030BB
:10194000C800C42D4C08C8074D08C93D4E08CA3D03
:101950004F08CB3D4B1CAD2CAE2C562D5B1CB12C37
:10196000B22CB62C5B360138DB00B82C0310DB0C34
:10197000481CBB2CBC2CBD2CDB170130D000CB3756
:10198000CA0CC90CC80CD00BBF2C0130D0005008B9
:10199000DA07562D4B08803AD0004F08803A5002A3
:1019A000031DDC2C4E084A02031DDC2C4D084902A5
:1019B000031DDC2C4C0848020318DF2CE02C182DEA
:1019C000FF30D000FF30D100FF30D200FF30D30015
:1019D00048084C02D40049084D3BD5004A084E3B0C
:1019E000D6004B084F3BD7005408D0075508D13DCF
:1019F0005608D23D5708D33D5308CB005208CA00C1
:101A00005108C9005008C8008030D0005008D806DE
:101A1000DB09DB0A5B08031D0E2D0F2D202D013085
:101A2000C8070030C93D0030CA3D0030CB3D202DF5
:101A30004C08C8024D08C93B4E08CA3B4F08CB3B77
:101A40004B084A0449044804031D272D282D522D14
:101A50005B08031D2C2D2D2D522D0030CB000030A6
:101A6000CA000030C9000030C800C42D0130C8359C
:101A7000C90DCA0DCB0D890B372DDB1F402D412D14
:101A8000422D48145B1C452D462D492D0314DB0DBA
:101A90004B2D0310DB0D5A0803194F2D502D522DDD
:101AA0000130DA02CA1F552D562D362DD901DB1F04
:101AB0005A2D5B2D692D5B087F390319602D612D2F
:101AC000642DD901D90A692D481C672D682D692D0F
:101AD000612D590803196D2D6E2D9B2D0130C807FE
:101AE0000030C93D0030CA3D0030CB3D4B1C792D44
:101AF0007A2D9B2D4808D0004908D1004A08D20011
:101B00004B08D3000130D400D337D20CD10CD00C09
:101B1000D40B842D5308CB005208CA005108C900C9
:101B20005008C8005A0A0319962D972D9B2D013095
:101B3000D0005008DA075A0A03199F2DA02DA52DB1
:101B40005A08031DA42DA52DB32D0030CB00003065
:101B5000CA000030C9000030C8005A08031DB12D6A
:101B6000B22DB32DD8015A1CB62DB72DB92DCA17D9
:101B7000BD2D7F30D0005008CA055A36CB00D81F83
:101B8000C22DC32DC42DCB17080020003108803989
:101B9000BB003135C100B01FCE2DCF2DD02D41144B
:101BA00041080319D42DD52DE42D410A031DD92D4B
:101BB000DA2DE22D0030B1000030B0000030AF006F
:101BC0000030AE00B017EC2D0030B1000030B00096
:101BD0000030AF000030AE0035088039B60036085E
:101BE000BB063535C000B41FF62DF72DF82D401477
:101BF00040080319FC2DFD2D0C2E400A031D012E5B
:101C0000022E0A2E0030B5000030B4000030B300C0
:101C10000030B200B417142E0030B5000030B4000C
:101C20000030B3000030B20040080319182E192EFE
:101C30001E2E4108031D1D2E1E2E272E0030B10022
:101C40000030B0000030AF000030AE00FF2F2E0893
:101C5000A0003408963106268D3120002108C700E7
:101C60002008C6004608B600B701B801B901390816
:101C7000BF003808BE003708BD003608BC00470862
:101C8000B600B701B801B9013908C5003808C40069
:101C90003708C3003608C2002F08A0003308963169
:101CA00006268D3120002108C7002008C6004608FE
:101CB000B600B701B801B9013608BC073708BD3D09
:101CC0003808BE3D3908BF3D4708B600B701B80126
:101CD000B9013608C2073708C33D3808C43D390882
:101CE000C53D3008A0003208963106268D3120000F
:101CF0002108C7002008C6004608B600B701B80191
:101D0000B9013608BC073708BD3D3808BE3D390863
:101D1000BF3D4708B600B701B801B9013608C20790
:101D20003708C33D3808C43D3908C53D0830BC35C7
:101D3000BD0DBE0DBF0D890B972E2F08A0003208D8
:101D4000963106268D3120002108C7002008C600E4
:101D50004608BC074708BD3D0030BE3DBF3D2E08CC
:101D6000A0003308963106268D3120002108C700D7
:101D70002008C6004608BC074708BD3D0030BE3DF0
:101D8000BF3D0830BC35BD0DBE0DBF0D890BC22E49
:101D90002E08A0003208963106268D312000210839
:101DA000C7002008C6004608BC074708BD3D0030F4
:101DB000BE3DBF3D2F08A0003408963106268D3168
:101DC00020002108C7002008C6004608C2074708AF
:101DD000C33D0030C43DC53D3008A00033089631F6
:101DE00006268D3120002108C7002008C6004608BD
:101DF000C2074708C33D0030C43DC53D3008A000C0
:101E00003408963106268D3120002108C7002008AD
:101E1000C6004608B6004708B700B801B901083047
:101E2000B635B70DB80DB90D890B102F3608C2079E
:101E30003708C33D3808C43D3908C53D3C08B600E5
:101E40003D08B7003E08B8003F08B9001830B93661
:101E5000B80CB70CB60C890B272F3608C207370809
:101E6000C33D3808C43D3908C53D0830BC35BD0DFB
:101E7000BE0DBF0D890B362F41084007B600B701D4
:101E8000B70D3608823EC600FF30373DC7005F2FD2
:101E90000130C235C30DC40DC50D890B492FBF1FBD
:101EA000522F532F542F42140130BC35BD0DBE0D9F
:101EB000BF0D890B552FFF30C607FF30C73DC41F2C
:101EC000622F632F482FC001BF1F672F682F842FF9
:101ED000FF303C05B600FF303D05B700FF303E0542
:101EE000B8007F303F05B90039083804370436049C
:101EF00003197B2F7C2F7F2FC001C00A842F421C27
:101F0000822F832F842F7C2F40080319882F892F3D
:101F1000B12F0130C2070030C33D0030C43D003056
:101F2000C53D451C942F952FB12F4208B60043089C
:101F3000B7004408B8004508B9000130BA00B93705
:101F4000B80CB70CB60CBA0B9F2F3908C50038086F
:101F5000C4003708C3003608C2000130C60700308D
:101F6000C73D4708803AB60080303602031DBA2FBD
:101F7000FF304602031CBD2FBE2FC82F7F3020002C
:101F8000C5008030C4000030C3000030C200F32F11
:101F900020004708803AB60080303602031DD22F59
:101FA000013046020318D52FD62FE12F0030200034
:101FB000C5000030C4000030C3000030C200BB01C7
:101FC000F32F20004608C100FF30C205FF30C305D3
:101FD0007F30C4050030C505411CEF2FF02FF12FD5
:101FE000C4174136C5003B08B6003608C50445088D
:101FF000B1004408B0004308AF004208AE0008003A
:1025E8000800080008003B009F1708003B00AF17D1
:1025F800080020001A1408003B00BF170800943197
:10260800722493310800640080010131890B082B82
:10261800003494318B24933171082200BF00700874
:10262800BE00080094318B24933171082200C50044
:102638007008C4000800200021083B009400200016
:1026480020083B0093000800200021083B00A4005C
:10265800200020083B00A3000800200021082200D9
:10266800D300200020082200D20008002000210802
:102678002200C700200020082200C6000800200011
:1026880021082200CB00200020082200CA000800F0
:10269800200021082200C900200020082200C800CC
:1026A8000800200021082200CD0020002008220078
:1026B800CC000800200021082200CF0020002008BC
:1026C8002200CE000800200021082200DC002000A3
:1026D80020082200DB000800200021082200DA0080
:1026E800200020082200D90008002000210822002C
:1026F800D800200020082200D70008002000210868
:102708002200D600200020082200D5000800200062
:1027180021083B00B400200020083B00B30008005B
:1027280090302C009600FF309500C0309400FC30AB
:1027380025009F05080090302C009900FF30980074
:10274800C0309700F33025009F05080090302C001A
:102758009C00FF309B00C0309A00CF3025009F05B9
:102768000800703021009B0080309C009A019D0178
:102778001C1FBF2BC02BBC2B0800200023082204E1
:10278800210420040319C92BCA2BCC2B8030A306A3
:102798000800200011132200520853040319D52BF6
:1027A800D62BDB2B53088A0052080A009331080005
:1027B80022005B085C040319E22BE32BE82B5C087E
:1027C8008A005B080A0093312700161008002200CF
:1027D80059085A040319F12BF22BF72B5A088A00CF
:1027E80059080A009331270096100800220057085C
:1027F80058040319002C012C062C58088A00570885
:102808000A009431270019110800220055085604BF
:1028180003190F2C102C152C56088A0055080A008D
:1028280094312700991108000130290097002030C1
:1028380096009801FF309400930120009110D03049
:1028480029009500080020009B01990198011110AA
:1028580019082200D100200018082200D0001130E9
:1028680020009A0008007F302000A700FF30A60053
:10287800FF30A500FF30A4002708A3002608A20007
:102888002508A1002408A0000800A0302900910014
:1028980092018E018F010130900021001117F43050
:1028A8002000A0001230A100933131239431080098
:1028B8003B00BC01BD01BE01BF01C001B201B101B5
:1028C8007D30B400B3017D30B600B501B8013F30AA
:1028D800B700BA01B9019030BB0008007D08283E56
:1028E8008600013087002300190881000130F000BC
:1028F8007008FD0708307D02031C832C842C852C6E
:10290800FD010130F00070082100EC0708002000EC
:102918001808FA001908F9007A08F200F301790892
:10292800F400F5017408F500F40172087404F70066
:1029380073087504F8007808F1007708F0000800BB
:102948003B00AC01AD014030AE00AF01B001A201C7
:10295800A1010B30A400B730A3009C30A6003F3083
:10296800A500A8010330A700AA01A9018030AB0087
:10297800080020002108A3002008A200A336A20C0A
:10298800A336A20C22082C00980020002008033946
:10299800A2000530A235FF3E031DCE2C22352C00A7
:1029A8009700080020002108A3002008A200A336F1
:1029B800A20CA336A20C22082C00950020002008A7
:1029C8000339A2000530A235FF3E031DE72C22354E
:1029D8002C009400080020002108A3002008A20071
:1029E800A336A20CA336A20C22082C009B002000C0
:1029F80020080339A2000530A235FF3E031D002D33
:102A080022352C009A0008003B009C019D014030B3
:102A18009E0001309F000130A000920191010B300F
:102A28009400B73093009C3096003F309500980191
:102A3800033097009A01990180309B000800943177
:102A48008B24953171082200BD007008BC003D0838
:102A5800803AFB003F08803A7B02031D352D3E0873
:102A68003C020318382D392D3A2D412D22003E08FD
:102A78003C02BA003F083D3BBB00080094318B2460
:102A8800953171082200C3007008C2004308803ADB
:102A9800FB004508803A7B02031D542D440842027E
:102AA8000318572D582D592D602D22004408420235
:102AB800C0004508433BC10008002000AD01AE013D
:102AC800291C672D682D6C2D2B08AD072C08AE3DF1
:102AD8000130AB35AC0D890B6D2D0130AA36A90C30
:102AE800890B722D29082A04031D7B2D7C2D642D4A
:102AF8002E08AA002D08A90008002700161C852DFD
:102B0800862D892D9331DC2395312700961C8D2D38
:102B18008E2D912D9331EB2395312700191D952D7D
:102B2800962D992D9331FA2395312700991D9D2DC6
:102B38009E2DA12D943109249531080001302000E3
:102B4800AF00FC30B000963152269531013020009C
:102B5800AF00FC30B0009631C2269531FF3020001E
:102B6800AF000330B00097319C279531FF3020002B
:102B7800AF000330B00096318A2695310800FF3047
:102B88002000AF000330B000963152269531FF3057
:102B98002000AF000330B0009631C22695310130D5
:102BA8002000AF00FC30B00097319C2795310130F0
:102BB8002000AF00FC30B00096318A26953108001D
:102BC800083021006D020318EA2DEB2D042E6E0843
:102BD800303E860001308700010823009A0001304A
:102BE800F00070082100EE0708306E02031CFD2D6E
:102BF800FE2DFF2DEE010130F0007008ED07052EC7
:102C0800111208002000A800A401A5012008A200B4
:102C1800A3012208A6002308A700281C142E152E9D
:102C2800192E2608A4072708A53D0130A635A70DAB
:102C3800890B1A2E0310A80C2808031D242E252EF4
:102C4800112E2508A1002408A00008008831B22010
:102C580096319331B52396318731FB2796319431DC
:102C68005C24963193319F23963194311824963100
:102C78009431A42496319431492496319331942384
:102C88009631953108259631943127249631933120
:102C9800AA2396319631FA2696310800200030088A
:102CA800803AB10080303102031D5C2E01302F02C2
:102CB800031C5F2E602E6C2E22008E130E17200030
:102CC8003008A1002F08A0009431BD249631892E28
:102CD8002000B01F702E712E852EFF30A900FF3006
:102CE800AA003008AC002F08AB0095316125963159
:102CF80020002A08B0002908AF0022008E170E1302
:102D0800632E22008E170E17632E0800200030084D
:102D1800803AB10080303102031D942E01302F0219
:102D2800031C972E982EA42E22008F170F13200015
:102D38003008A1002F08A0009431D6249631C12E66
:102D48002000B01FA82EA92EBD2EFF30A900FF30ED
:102D5800AA003008AC002F08AB00953161259631E8
:102D680020002A08B0002908AF0022008F130F178F
:102D78009B2E22008F170F179B2E0800200030086B
:102D8800803AB10080303102031DCC2E01302F0271
:102D9800031CCF2ED02EDC2E22008D110D15200005
:102DA8003008A1002F08A0009431EF249631F92EA5
:102DB8002000B01FE02EE12EF52EFF30A900FF30D5
:102DC800AA003008AC002F08AB0095316125963178
:102DD80020002A08B0002908AF0022008D150D1127
:102DE800D32E22008D150D15D32E08002100911227
:102DF80004302000A0000830A100933155239631FB
:102E080021001112E4302000A0001530A1009331F8
:102E18005E239631083023009F0090309D002430B7
:102E28009E0044309B009C01F5302000A000123029
:102E3800A10093314323963100302000A0000830D0
:102E4800A10093314C23963103302000A0001330A9
:102E5800A10093313A2396312200D4012100EF01D9
:102E6800EE010830ED00FD01FC01EC0191160800AF
:102E78002000A601A11F412F422F492FA009A10917
:102E8800A00A0319A10AA601A60AA31F4C2F4D2FB9
:102E9800562FA209A309A20A0319A30A0130A40004
:102EA8002408A606A701A8012008210403195D2FFC
:102EB8005E2F8D2FA501A50A6A2F0130A035A10D1F
:102EC800890B622F0130A4002408A507A11F6D2FCC
:102ED8006E2F612F0130A735A80D890B6F2F2108A0
:102EE8002302031D792F20082202031C7C2F7D2F2B
:102EF800822F2008A2022108A33B27140130A13603
:102F0800A00C890B832F0130A502031D8C2F8D2F58
:102F18006E2F26080319912F922F972FA709A8091A
:102F2800A70A0319A80A2808A1002708A000080072
:102F380020003008803AB10080303102031DA62FEE
:102F480001302F02031CA92FAA2FD62FFF302000F3
:102F5800A0000330A1003008A3002F08A200973179
:102F68003C27973120002108AA002008A90000303A
:102F7800AB007D30AC0095316125973120002A08DF
:102F8800B0002908AF0022008E160E12200030086B
:102F9800A1002F08A00093318B2397319331002390
:102FA8009731FF2F2000B01FDA2FDB2FFB2FFF30C8
:102FB800A0000330A1003008A3002F08A200973119
:102FC8003C27973120002108AA002008A9000030DA
:102FD800AB008330AC0095316125973120002A0879
:102FE800B0002908AF0022008E120E16CA2F220048
:102FF8008E160E16CA2F080060344234A2340D34DF
:02300800003492
:020000040001F9
:08000000FF3FFF3FFF3FFF3F00
:04000E00E43FFF1FAD
:00000001FF
