:1000000080314628080008007E1480318B1D0928A5
:100010000A2812280B1C0D280E2812288531C3250A
:10002000803144280B1F1528162844282100111F51
:100030001A281B2824282000111F1F2820282428C4
:1000400087316727803144282100111E282829285C
:1000500034282000111E2D282E28342859088A0003
:1000600058080A00803144282100911E3828392878
:1000700044282000911E3D283E28442857088A0025
:1000800056080A00803144287E1009008031482833
:10009000FC01FD0144308400003085001F308731B1
:1000A000DB278031A0308400003085001830873194
:1000B000DB2780317E10200080315E288531372596
:1000C0008031B8302000BC000B30BD00B830BE001D
:1000D0000B30BF008B170B17D230A0000730A100E8
:1000E0008731F327803123302000A0000630A100A3
:1000F0008731ED278031C9302000A0000730A100F2
:100100008731E727803104302000A0000630A100AD
:100110008731E127803100302000AF00B00083310B
:100120004F23803100302000AF00B0008431FF2425
:10013000803100302000AF00B0008431C72480310E
:1001400000302000AF00B00084318F24803129308E
:100150002000B3009630B2007F30890BAD28B20B7F
:10016000AD28B30BAD288F31D027803120003F0858
:10017000A1003E08A0008731B72780318F31CD27FD
:10018000803120003D08A1003C08A0008731C02735
:1001900080318F31CA2780312000C51BD028D1285B
:1001A000E2284508803AB20081303202031DDA2885
:1001B000903044020318DD28DE28E2282000B60132
:1001C000B7011D2920004508803AB200853032026F
:1001D000031DEC28DC304402031CEF28F02804291E
:1001E00020004508803AB20086303202031DFA280A
:1001F000413044020318FD28FE2804290E30200057
:10020000B6000630B7001D2920004508803AB2002C
:100210008C303202031D0E2981304402031C112947
:100220001229182980302000B6000C30B7001D2993
:1002300020004508B7004408B600CB1B202921291F
:1002400032294B08803AB20081303202031D2A293C
:1002500090304A0203182D292E2932292000B4019A
:10026000B5016D2920004B08803AB200853032027A
:10027000031D3C29DC304A02031C3F294029542934
:1002800020004B08803AB20086303202031D4A2912
:1002900041304A0203184D294E2954290E302000BE
:1002A000B4000630B5006D2920004B08803AB2003A
:1002B0008C303202031D5E2981304A02031C612901
:1002C0006229682980302000B4000C30B5006D2907
:1002D00020004B08B5004A08B4003608F23EC000C2
:1002E000F930373DC1003408F23EC200F930353DE7
:1002F000C3004108803AB20080303202031D8229D7
:1003000001304002031C85298629A429723020006F
:10031000A0000630A1004108A3004008A2008331DC
:10032000B323803120002108AA002008A900FF3053
:10033000AB000330AC008531E425803120002A0871
:10034000B9002908B800C8292000C11FA829A92977
:10035000C6290E30A0000630A1004108A3004008C5
:10036000A2008331B323803120002108AA00200895
:10037000A900FF30AB000330AC008531E4258031AB
:1003800020002A08B9002908B800C829B801B90115
:100390004308803AB20080303202031DD129013077
:1003A0004202031CD429D529F32972302000A00071
:1003B0000630A1004308A3004208A2008331B32302
:1003C000803120002108AA002008A900FF30AB00DE
:1003D0000330AC008531E425803120002A08BB00C1
:1003E0002908BA00172A2000C31FF729F829152A5F
:1003F0000E30A0000630A1004308A3004208A2006E
:100400008331B323803120002108AA002008A900ED
:10041000FF30AB000330AC008531E4258031200093
:100420002A08BB002908BA00172ABA01BB010E1816
:100430001A2A1B2A232A0C1B1E2A1F2A232A85312B
:10044000812580314E2A8C1B262A272A2F2A8C1997
:100450002A2A2B2A2F2A8531A22580314E2A3B08B1
:10046000B0003A08AF0083314F23803120003908B3
:10047000B0003808AF008431FF24803120003908F3
:10048000B0003808AF008431C724803120003B0819
:10049000B0003A08AF0084318F24803120000C1F57
:1004A000522A532A722A0E18562A572A722A3D08AF
:1004B000803AB20091303202031D602AF8303C02CB
:1004C0000318632A642A722A01302000BC07003016
:1004D000BD3D0B302000B2006230890B6D2AB20B9B
:1004E0006D2A000020008C1D762A772A962A8C1B04
:1004F0007A2A7B2A962A3D08803AB2008830320256
:10050000031D842AFD303C02031C872A882A962A70
:10051000FF302000BC07FF30BD3D0B302000B20093
:100520006230890B912AB20B912A000020008C1FA7
:100530009A2A9B2AB12A8C199E2A9F2AB12A3F08FF
:10054000803AB2008F303202031DA82AA0303E024A
:100550000318AB2AAC2AB12A01302000BE070030B4
:10056000BF3D20000E1CB52AB62AB6280C1BB92A9E
:10057000BA2AB6283F08803AB20089303202031DF9
:10058000C32AC5303E02031CC62AC72AB628FF303C
:100590002000BE07FF30BF3DB6288031462822002C
:1005A00090018F018C018D018E0107302100900098
:1005B000CF308C00E3308D000F308E0011308F0073
:1005C00023008F018E018D010730900027308C00B1
:1005D00024008F0190018D018C018E01210097175D
:1005E000250090018C018D018E018F01FF302600C6
:1005F0008C00FF308D00FF308E00FF308F00073001
:1006000090003F3027008C00F0308D00FF308E00CE
:10061000FF308F00161096101510951414149410B6
:10062000191199111811981517159711C930200033
:10063000A0000F30A1008731F32782310230200063
:10064000A0000030A1008731ED2782310330200067
:10065000A0000030A1008731E7278231FF30200061
:10066000A0000730A1008731E12782318B151E30B1
:100670003D00AA000D303C00BD001B303D00940041
:100680001A30AD000E303C00B9001D303D00AB000B
:100690001930950024309C001F30A900080020006C
:1006A0003008803AB10080303102031D592B0130EF
:1006B0002F02031C5C2B5D2B892BFF302000A00038
:1006C0000330A1003008A3002F08A2008331B32318
:1006D000833120002108AA002008A9000030AB00C7
:1006E0007D30AC008531E425833120002A08B0003C
:1006F0002908AF0022008E160E1220003008A1003B
:100700002F08A0008731AE2783318F31D327833163
:10071000B22B2000B01F8D2B8E2BAE2BFF30A000F4
:100720000330A1003008A3002F08A2008331B323B7
:10073000833120002108AA002008A9000030AB0066
:100740008330AC008531E425833120002A08B000D5
:100750002908AF0022008E120E167D2B22008E1665
:100760000E167D2B08002000A601A11FB82BB92B67
:10077000C02BA009A109A00A0319A10AA601A60A73
:10078000A31FC32BC42BCD2BA209A309A20A0319B3
:10079000A30A0130A4002408A606A701A801200886
:1007A00021040319D42BD52B042CA501A50AE12B78
:1007B0000130A035A10D890BD92B0130A4002408EC
:1007C000A507A11FE42BE52BD82B0130A735A80DD9
:1007D000890BE62B21082302031DF02B200822029F
:1007E000031CF32BF42BF92B2008A2022108A33BB6
:1007F00027140130A136A00C890BFA2B0130A50279
:10080000031D032C042CE52B26080319082C092CA6
:100810000E2CA709A809A70A0319A80A2808A100ED
:100820002708A00008002100911255302000A000E8
:100830000430A1008F31FA278431210011125F307A
:100840002000A0000530A1008731F927843108304D
:1008500023009F0090309D0024309E0044309B0078
:100860009C01C8302000A0000F30A1008F31EE277E
:100870008431DA302000A0000F30A1008F31F4273E
:100880008431D6302000A0000F30A1008F31E8273E
:1008900084312000DE01E201E1010830E000DF01E7
:1008A000FD01FC0121009116080020005F08A03E18
:1008B00086008701810123001D1D5F2C602C6B2C9D
:1008C00020005F08A03E86008701811455088A0039
:1008D00054080A00843123009D1C6F2C702C7B2C43
:1008E00020005F08A03E86008701011553088A009A
:1008F00052080A00843120005F08A03E860087016C
:1009000001080319842C852C8B2C51088A0050086F
:100910000A0084318E2C8631DA26843108002000CA
:100920003008803AB10080303102031D992C01302B
:100930002F02031C9C2C9D2CA92C22008D110D151F
:1009400020003008A1002F08A00086315D268431E8
:10095000C62C2000B01FAD2CAE2CC22CFF30A9003D
:10096000FF30AA003008AC002F08AB008531E42529
:10097000843120002A08B0002908AF0022008D151C
:100980000D11A02C22008D150D15A02C08002000A3
:100990003008803AB10080303102031DD12C013083
:1009A0002F02031CD42CD52CE12C22008F170F13FF
:1009B00020003008A1002F08A0008631762684315F
:1009C000FE2C2000B01FE52CE62CFA2CFF30A900ED
:1009D000FF30AA003008AC002F08AB008531E425B9
:1009E000843120002A08B0002908AF0022008F13AC
:1009F0000F17D82C22008F170F17D82C08002000B3
:100A00003008803AB10080303102031D092D0130D9
:100A10002F02031C0C2D0D2D192D22008E130E17E5
:100A200020003008A1002F08A00086318F268431D5
:100A3000362D2000B01F1D2D1E2D322DFF30A90098
:100A4000FF30AA003008AC002F08AB008531E42548
:100A5000843120002A08B0002908AF0022008E1738
:100A60000E13102D22008E170E17102D0800823144
:100A7000CF2285318731812785318F31DE2785313E
:100A80008631F326853187319827853187311C27B8
:100A900085318631A826853187310927853187310F
:100AA000A3278531863142268531873175278531E7
:100AB00087318D2785318431132485310800083032
:100AC000200060020318652D662D7E2D6108B03E62
:100AD00086008701010823009A000130F0007008A9
:100AE0002000E10708306102031C772D782D792D55
:100AF000E1010130F0007008E007802D21001112A3
:100B00000800FF302000AF000330B0008431FF2424
:100B10008531FF302000AF000330B00084318F24D6
:100B2000853101302000AF00FC30B00083314F230D
:100B3000853101302000AF00FC30B0008431C72483
:100B40008531080001302000AF00FC30B000843156
:100B5000FF24853101302000AF00FC30B00084312B
:100B60008F248531FF302000AF000330B000833187
:100B70004F238531FF302000AF000330B0008431B7
:100B8000C724853108002700161CC72DC82DCB2D82
:100B90008731582785312700961CCF2DD02DD32D96
:100BA0008731492785312700191DD72DD82DDB2DF9
:100BB00087313A2785312700991DDF2DE02DE32D60
:100BC00087312B27853108002000AD01AE01291C9B
:100BD000EA2DEB2DEF2D2B08AD072C08AE3D013093
:100BE000AB35AC0D890BF02D0130AA36A90C890B61
:100BF000F52D29082A04031DFE2DFF2DE72D2E08B3
:100C0000AA002D08A90008008631C1268631710886
:100C10002000CD007008CC004D08803AFB004F0842
:100C2000803A7B02031D162E4E084C020318192E23
:100C30001A2E1B2E222E20004E084C02CA004F08EE
:100C40004D3BCB0008008631C1268631710820005B
:100C5000C7007008C6004708803AFB004908803A80
:100C60007B02031D352E480846020318382E392E04
:100C70003A2E412E200048084602C4004908473B4E
:100C8000C50008003B009C019D0140309E000130E2
:100C90009F000130A000920191010B309400B73009
:100CA00093009C3096003F309500980103309700E8
:100CB0009A01990180309B00080020002108A300C0
:100CC0002008A200A336A20CA336A20C22082C00F6
:100CD0009B00200020080339A2000530A235FF3E0A
:100CE000031D6E2E22352C009A00080020002108DA
:100CF000A3002008A200A336A20CA336A20C22084F
:100D00002C009500200020080339A2000530A235F0
:100D1000FF3E031D872E22352C0094000800200082
:100D20002108A3002008A200A336A20CA336A20C1F
:100D300022082C009800200020080339A20005306A
:100D4000A235FF3E031DA02E22352C00970008007F
:100D50003B00AC01AD014030AE00AF01B001A201DB
:100D6000A1010B30A400B730A3009C30A6003F3097
:100D7000A500A8010330A700AA01A9018030AB009B
:100D8000080020001808FA001908F9007A08F20093
:100D9000F3017908F400F5017408F500F401720814
:100DA0007404F70073087504F8007808F1007708F8
:100DB000F000080020005F08A83E8600870123009D
:100DC000190881000130F00070082000DF070830AA
:100DD0005F02031CEC2EED2EEE2EDF010130F00041
:100DE0007008FC0708003B00BC01BD01BE01BF014B
:100DF000C001B201B1017D30B400B3017D30B60055
:100E0000B501B8013F30B700BA01B9019030BB005D
:100E10000800A0302900910092018E018F0101305D
:100E2000900021001117C7302000A0000F30A10052
:100E30008F31E227873108000130290097002030E8
:100E400096009801FF309400930120009110D0305B
:100E50002900950008002000630864040319312F5D
:100E6000322F372F64088A0063080A008731270071
:100E7000991108002000650866040319402F412FCE
:100E8000462F66088A0065080A0087312700191175
:100E9000080020006708680403194F2F502F552FB2
:100EA00068088A0067080A00873127009610080042
:100EB000200069086A0403195E2F5F2F642F6A08F7
:100EC0008A0069080A0087312700161008002000F0
:100ED00011135C085D0403196E2F6F2F742F5D08CA
:100EE0008A005C080A008731080020009B019901F4
:100EF000980111101908DB001808DA0011309A0067
:100F00000800703021009B0080309C009A019D01F8
:100F10001C1F8B2F8C2F882F080090302C009C00DA
:100F2000FF309B00C0309A00CF3025009F0508009D
:100F300090302C009900FF309800C0309700F330BB
:100F400025009F05080090302C009600FF3095008A
:100F5000C0309400FC3025009F05080020002108C7
:100F60003B00B400200020083B00B3000800200034
:100F700021083B00A400200020083B00A30008003B
:100F8000200021083B009400200020083B00930033
:100F900008008631C126873171082000CF00700813
:100FA000CE0008008631C126873171082000C900B3
:100FB0007008C8000800640080010131890BDC2F33
:100FC000003420002108E4002008E300080020008D
:100FD0002108E6002008E500080020002108E800BC
:100FE0002008E700080020002108EA002008E900A6
:100FF000080020002108D9002008D80008000800B7
:101F8E000800080008003B009F1708003B00AF1731
:101F9E00080020001A1408003B00BF170800863105
:101FAE00DA268F31080023001D121D160800163088
:101FBE0021009900080020002108DD002008DC0027
:101FCE00080020002108D1002008D00008002000C1
:101FDE002108D5002008D400080020002108D300D5
:101FEE002008D200080020002108D7002008D600C3
:021FFE000800D9
:020000040001F9
:08000000FF3FFF3FFF3FFF3F00
:04000E00E43FFF1FAD
:00000001FF
