:1000000080314828080008007E1480318B1D0928A3
:100010000A2812280B1C0D280E2812289531362587
:10002000803146280B1F1528162846282100111F4D
:100030001A281B2824282000111F1F2820282428C4
:1000400093318223803146282100111E2828292837
:1000500035282000111E2D282E28352822004F0873
:100060008A004E080A00803146282100911E392856
:100070003A2846282000911E3E283F284628220084
:100080004D088A004C080A00803146287E1009007D
:1000900080314A28FC01FD012030840001308500B8
:1000A00039308731F92780317E102000803158287F
:1000B0009531E0258031B8302100E4000B30E500B7
:1000C000B830E6000B30E7008B170B17C23020006A
:1000D000A0001230A10093311C238031D8302000C1
:1000E000A0001430A100933125238031CB302000B3
:1000F000A0001230A10093312E238031F730200070
:10010000A0001430A100933137238031003020004B
:10011000AF00B00087319527803100302000AF005C
:10012000B00096310826803100302000AF00B000CA
:1001300096314026803100302000AF00B00096316B
:100140007826803129302100D7009630D6007F30C4
:10015000890BA828D60BA828D70BA8289231B7223C
:10016000803140302000DF000030DE000030DD0054
:100170000030DC0084318124803120005F08EB00F6
:100180005E08EA005D08E9005C08E8003F30EF0027
:100190008030EE000030ED000030EC008931BD21F0
:1001A000803120006B082100EB0020006A0821004C
:1001B000EA00200069082100E90020006808210009
:1001C000E800210067082000A10021006608200047
:1001D000A0009231DD2280319231B42280312100A1
:1001E00065082000A100210064082000A0009231D1
:1001F000D42280319231B12280312200BB1B0129EF
:10020000022915293B08803A2100D6008130560288
:10021000031D0D29903022003A02031810291129DC
:1002200015292100DA01DB01592922003B08803A17
:100230002100D60085305602031D2129DC30220022
:100240003A02031C242925293B2922003B08803A35
:100250002100D60086305602031D3129413022008C
:100260003A020318342935293B290E302100DA00DF
:100270000630DB00592922003B08803A2100D600D5
:100280008C305602031D4729813022003A02031C9C
:100290004A294B29512980302100DA000C30DB003B
:1002A000592922003B082100DB0022003A082100E6
:1002B000DA002200C11B5D295E2971294108803ABC
:1002C0002100D60081305602031D6929903022009A
:1002D000400203186C296D2971292100D801D90128
:1002E000B52922004108803A2100D6008530560207
:1002F000031D7D29DC3022004002031C8029812956
:10030000972922004108803A2100D6008630560203
:10031000031D8D29413022004002031890299129A4
:1003200097290E302100D8000630D900B5292200C7
:100330004108803A2100D6008C305602031DA329C3
:10034000813022004002031CA629A729AD29803054
:100350002100D8000C30D900B52922004108210025
:10036000D900220040082100D8005A08F23EDC00E3
:10037000F9305B3DDD005808F23EDE00F930593DB2
:10038000DF005C082000A00021005D082000A10023
:10039000890D893B8909A200A3000130893112210E
:1003A000803120002308B5002208B4002108B300E2
:1003B0002008B20021006B082000B10021006A086B
:1003C0002000B000210069082000AF00210068086B
:1003D0002000AE008D31C525803120003108CF00CE
:1003E0003008CE002F08CD002E08CC0021005E087A
:1003F0002000A00021005F082000A100890D893B9A
:100400008909A200A3000130893112218031200026
:100410002308B5002208B4002108B3002008B20068
:1004200021006B082000B10021006A082000B00004
:10043000210069082000AF00210068082000AE00FC
:100440008D31C525803120003108CB003008CA002D
:100450002F08C9002E08C8008B31BD238031200031
:100460004B08DF004A08DE004908DD004808DC00D0
:1004700097318F27803120005D082100ED0020009A
:100480005C082100EC005C082000A00021005D0851
:100490002000A100890D893B8909A200A300013039
:1004A00089311221803120002308B5002208B400D0
:1004B0002108B3002008B20021006B082000A3002F
:1004C00021006A082000A200210069082000A10084
:1004D000210068082000A00093317623803120009D
:1004E0002308B1002208B0002108AF002008AE00A8
:1004F0008D31C525803120003108CF003008CE0075
:100500002F08CD002E08CC0021005E082000A0009E
:1005100021005F082000A100890D893B8909A20004
:10052000A300013089311221803120002308B50059
:100530002208B4002108B3002008B20021006B0893
:100540002000B10021006A082000B00021006908E5
:100550002000AF00210068082000AE008D31C525C5
:10056000803120003108CB003008CA002F08C900B4
:100570002E08C8008B31BD23803120004B08DF00DE
:100580004A08DE004908DD004808DC0097318F2763
:10059000803120005D082100EF0020005C08210070
:1005A000EE006D08803AD60084305602031DDA2A28
:1005B0008F306C02031CDD2ADE2AE42A8E302100F3
:1005C000EC000430ED00F72A21006D08803AD600D7
:1005D0007B305602031DEE2AB8306C020318F12A54
:1005E000F22AF72AB8302100EC00FB30ED002100A0
:1005F0006F08803AD60084305602031D012B493023
:100600006E02031C042B052B0B2B48302100EE003F
:100610000430EF001E2B21006F08803AD6007B309B
:100620005602031D152BB8306E020318182B192B18
:100630001E2BB8302100EE00FB30EF0021006D08CA
:10064000803AD60080305602031D282B01306C0200
:10065000031C2B2B2C2B512B8E302000A0000430A0
:10066000A10021006D082000A30021006C082000DB
:10067000A20097312F27803120002108AA002008EE
:10068000A900FF30AB000330AC0095311625803156
:1006900020002A082100E100200029082100E000B4
:1006A0007D2B2100ED1F552B562B7B2B4830200036
:1006B000A0000430A10021006D082000A30021004B
:1006C0006C082000A20097312F27803120002108DC
:1006D000AA002008A900FF30AB000330AC00953120
:1006E0001625803120002A082100E1002000290879
:1006F0002100E0007D2BE001E1016F08803AD60087
:1007000080305602031D862B01306E02031C892B9C
:100710008A2BAF2B48302000A0000430A10021001C
:100720006F082000A30021006E082000A20097316E
:100730002F27803120002108AA002008A900FF30BF
:10074000AB000330AC0095311625803120002A081B
:100750002100E300200029082100E200B72B21003E
:10076000EF1FB32BB42BB52B8A2BE201E301200042
:100770000E18BB2BBC2BC42B0C1BBF2BC02BC42BAC
:10078000953178258031FC2B8C1BC72BC82BD02BA7
:100790008C19CB2BCC2BD02B953157258031FC2BB2
:1007A000210063082000B000210062082000AF0093
:1007B000873195278031210061082000B000210099
:1007C00060082000AF0096310826803121006108C2
:1007D0002000B000210060082000AF0096314026C4
:1007E0008031210063082000B00021006208200051
:1007F000AF0096317826803120000C1F002C012C90
:10080000212C0E18042C052C212C21006508803A7F
:10081000D60091305602031D0F2CF83064020318E5
:10082000122C132C212C01302100E4070030E53D6F
:100830000B302100D6006230890B1C2CD60B1C2CEF
:10084000000020008C1D252C262C462C8C1B292CCE
:100850002A2C462C21006508803AD60088305602A2
:10086000031D342CFD306402031C372C382C462C1D
:10087000FF302100E407FF30E53D0B302100D600BA
:100880006230890B412CD60B412C000020008C1FBC
:100890004A2C4B2C622C8C194E2C4F2C622C210094
:1008A0006708803AD6008F305602031D592CA030BD
:1008B000660203185C2C5D2C622C01302100E607D7
:1008C0000030E73D20000E1C662C672CE1280C1B35
:1008D0006A2C6B2CE12821006708803AD600893009
:1008E0005602031D752CC5306602031C782C792C2A
:1008F000E128FF302100E607FF30E73DE1288031A5
:10090000482820005F082100AB0020005E0821007D
:10091000AA0020005D082100A90020005C08210039
:10092000A8002B08C3002A08C2002908C100280813
:10093000C000003040052000E000003021004105EB
:100940002000E1008030210042052000E2007F30DD
:10095000210043052000E300803062067F30031948
:10096000630660046104031DB62CB72CE92C20003B
:100970005F08CB005E08CA005D08C9005C08C800BB
:100980005F08B1005E08B0005D08AF005C08AE0013
:100990005F08B5005E08B4005D08B3005C08B200F3
:1009A0008D31C525843120003108CF003008CE00BC
:1009B0002F08CD002E08CC008B31BD2384312000C0
:1009C0004B08DF004A08DE004908DD004808DC006B
:1009D000942F2100C31BFB2C4308031DFA2C420853
:1009E000031DFA2C4108031DFA2C013040020318A4
:1009F000FA2CFB2C342DFF30210040052000E000B4
:100A0000FF30210041052000E100FF3021004205B8
:100A10002000E2007F30210043052000E30063084E
:100A2000620461046004031D162D172D182D942FE8
:100A30002100C31F1C2D1D2D342D21302200B80094
:100A40000030B90004302000A0009830A10093319C
:100A5000EC23843120002308DF002208DE00210877
:100A6000DD002008DC00942F210040082000E00079
:100A7000210041082000E100210042082000E2009E
:100A8000210043082000E3001730E400E337E20CC4
:100A9000E10CE00CE40B462D63082100BB002000B4
:100AA00062082100BA00200061082100B90020007E
:100AB00060082100B8003B083A0439043804031DDB
:100AC000622D632DA72D0030A7000030A600003056
:100AD000A5000030A4007B2D0130C035C10DC20D32
:100AE000C30D890B6D2D0130A4070030A53D0030EA
:100AF000A63D0030A73DC21F7E2D7F2D6C2DFF30FF
:100B00002000E000FF30E100FF30E200FF30E300B2
:100B1000210024082000E007210025082000E13DF5
:100B2000210026082000E23D210027082000E33DA7
:100B300060082100B802200061082100B93B2000B4
:100B400062082100BA3B200063082100BB3B8130D2
:100B5000B807FF30B93DFF30BA3DFF30BB3D003034
:100B60002000E0000030E1008030E2000030E300CF
:100B7000FF30210040052000E400FF302100410546
:100B80002000E5007F30210042052000E600003013
:100B9000210043052000E7006408E0046508E10443
:100BA0006608E2046708E30463082100C30020002C
:100BB00062082100C200200061082100C10020005D
:100BC00060082100C000381CE62DE72DEF2D4008FD
:100BD000C0074108C13D4208C23D4308C33D013042
:100BE0002000E0002100BB37BA0CB90CB80C200083
:100BF000E00BF22D21004008C0074108C13D42082A
:100C0000C23D4308C33D0030A3000030A2000030C5
:100C1000A1000030A0002308AF002208AE00210888
:100C2000AD002008AC000130BF000030BE00003035
:100C3000BD000030BC00992E3C0820072000E000D9
:100C400021003D08213D2000E10021003E08223D19
:100C50002000E20021003F08233D2000E30063085C
:100C60002100B300200062082100B20020006108CA
:100C70002100B100200060082100B0004308803A44
:100C80002000E00021003308803A200060022100AB
:100C9000031D542E32084202031D542E3108410216
:100CA000031D542E30084002031C572E582E8A2E46
:100CB0003C0830072000E00021003D08313D2000C5
:100CC000E10021003E08323D2000E20021003F0803
:100CD000333D2000E30063082100A30020006208E8
:100CE0002100A200200061082100A100200060086E
:100CF0002100A0003008C0023108C13B3208C23BCD
:100D00003308C33B3C08AC073D08AD3D3E08AE3D53
:100D10003F08AF3D4008C0074108C13D4208C23D01
:100D20004308C33D0130BF36BE0CBD0CBC0C890B63
:100D3000932E3F083E043D043C04031DA02EA12E2B
:100D40001C2E43084204410440040319A82EA92E76
:100D5000252F3F30B7008030B6000030B50000309E
:100D6000B40037082000A300210036082000A200AC
:100D7000210035082000A100210034082000A00037
:100D80003F30A7008030A6000030A5000030A4004E
:100D9000883187208431031CCE2ECF2E252F3F3063
:100DA0002100B7008030B6000030B5000030B4003C
:100DB0003F302000A3008030A2000030A1000030AE
:100DC000A000210037082000A700210036082000DD
:100DD000A600210035082000A500210034082000CD
:100DE000A4008831872084310318F72EF82E022FB3
:100DF00002302100AC070030AD3D0030AE3D003088
:100E0000AF3D252F013021002C052000E0000030EF
:100E100021002D052000E100003021002E052000DA
:100E2000E200003021002F052000E30060082100CF
:100E3000AC07200061082100AD3D200062082100C0
:100E4000AE3D200063082100AF3D21002C082000AA
:100E5000E00021002D082000E10021002E082000E4
:100E6000E20021002F082000E3000130E400E33716
:100E7000E20CE10CE00CE40B372F0030600721009E
:100E8000C00000302000613D2100C1000030200082
:100E9000623D2100C2003F302000633D2100C300BD
:100EA00038082000E000210039082000E10021007E
:100EB0003A082000E20021003B082000E300173040
:100EC000E035E10DE20DE30D890B602F6008210094
:100ED000C007200061082100C13D200062082100F8
:100EE000C23D200063082100C33D4308AB00420817
:100EF000AA004108A9004008A8002B08B7002A084A
:100F0000B6002908B5002808B40037082000DF0023
:100F1000210036082000DE00210035082000DD0019
:100F2000210034082000DC00080020003008803A4E
:100F3000B10080303102031D9F2F01302F02031CAE
:100F4000A22FA32FCF2FFF302000A0000330A1003D
:100F50003008A3002F08A20097312F2787312000E7
:100F60002108AA002008A9000030AB007D30AC00A9
:100F700095311625873120002A08B0002908AF00D6
:100F800022008E160E1220003008A1002F08A000AB
:100F9000933140238731883100208731F82F20009A
:100FA000B01FD32FD42FF42FFF30A0000330A100A7
:100FB0003008A3002F08A20097312F278731200087
:100FC0002108AA002008A9000030AB008330AC0043
:100FD00095311625873120002A08B0002908AF0076
:100FE00022008E120E16C32F22008E160E16C32F4D
:100FF0000800640080010131890BFA2F00340800D9
:101000003B00BF170800163021009900080022009D
:1010100090018F018C018D018E010730210090001D
:10102000CF308C00E3308D000F308E0011308F00F8
:1010300023008F018E018D010730900027308C0036
:1010400024008F0190018D018C018E0121009717E2
:10105000250090018C018D018E018F01FF3026004B
:101060008C00FF308D00FF308E00FF308F00073086
:1010700090003F3027008C00F0308D00FF308E0054
:10108000FF308F001610961015109514141494103C
:10109000191199111811981517159711B0302000D2
:1010A000A0001230A10093311C23883102302000AF
:1010B000A0000030A10093312523883103302000A7
:1010C000A0000030A10093312E238831FF30200092
:1010D000A0000730A1009331372388318B151E30D3
:1010E0003D00AA000D303C00BD001B303D009400C7
:1010F0001A30AD000E303C00B9001D303D00AB0091
:101100001930950024309C001F30A90008000030E1
:1011100020002005A80000302105A900803022050C
:10112000AA007F302305AB002B082A0429042804D9
:10113000031D9B289C28A4280030A3000030A20097
:101140000030A1000030A00000302405A8000030CD
:101150002505A90080302605AA007F302705AB00B1
:101160002B082A0429042804031DB728B828C028FE
:101170000030A7000030A6000030A5000030A40019
:10118000A31FC328C428DC280030A8000030A90011
:101190000030AA008030AB002008A8022108A93B3B
:1011A0002208AA3B2308AB3B2B08A3002A08A20075
:1011B0002908A1002808A000A71FDF28E028F82898
:1011C0000030A8000030A9000030AA008030AB0039
:1011D0002408A8022508A93B2608AA3B2708AB3B00
:1011E0002B08A7002A08A6002908A5002808A400A3
:1011F0008030A3068030A70627082302031D0A2992
:1012000026082202031D0A2925082102031D0A2996
:101210002408200203180D290E2910290310112972
:10122000031408002000A800280803191829192908
:101230002D29A31F1C291D292D292009AA002109B8
:10124000AB002209AC002309AD00AA0A0319AB0ABE
:101250000319AC0A0319AD0A35292308AD00220889
:10126000AC002108AB002008AA00230822042104B6
:101270002004031D3C293D2946290030A3000030ED
:10128000A2000030A1000030A000BC299630A900C7
:1012900054290130A4002408A9070130AD36AC0C54
:1012A000AB0CAA0C890B4E29FE302D05031D5929C4
:1012B0005A2949296E290130A4002408A9070130C0
:1012C000AA070030AB3D0030AC3D0030AD3D0130F1
:1012D000AD36AC0CAB0CAA0C890B6829FF302D0580
:1012E000031D732974295B297E290130A90201306D
:1012F000AA35AB0DAC0DAD0D890B7829AC1B81293E
:10130000822988290230290203188729882975290A
:1013100029188B298C299429FF30AA05FF30AB05A9
:101320007F30AC05FF30AD050310A90C2908A400DF
:10133000A501A601A7011830A435A50DA60DA70D7E
:10134000890B9C292408AA042508AB042608AC04B0
:101350002708AD0428080319AE29AF29B429A31F13
:10136000B229B329B429AD172D08A3002C08A20077
:101370002B08A1002A08A000080020006F0880396F
:101380002100CD0020006F352100D4002000EE1F89
:10139000CA29CB29CD29210054142100540803194E
:1013A000D229D329E529540A031DD729D829E129AF
:1013B00000302000EF000030EE000030ED00003083
:1013C000EC002000EE17EF01EE2900302000EF00C6
:1013D0000030EE000030ED000030EC006B0880398A
:1013E0002100C4004408CD0620006B352100D50043
:1013F0002000EA1FFC29FD29FF29210055142100A6
:1014000055080319042A052A172A550A031D092A13
:101410000A2A132A00302000EB000030EA000030D6
:10142000E9000030E8002000EA17EB01202A003034
:101430002000EB000030EA000030E9000030E80056
:101440006B086A0469046804031D272A282A432AB2
:101450000030EF000030EE000030ED000030EC0016
:101460008030EE047F30EF0421004D08C4004408B2
:101470002000EF046F08EB006E08EA006D08E90039
:101480006C08E800BC2B21005408031D482A492A97
:10149000532A00302000EB000030EA000030E90061
:1014A0000030E800BC2B5408C400C5014508C70043
:1014B00055084402C600031CC70346087F3ECE0001
:1014C0000030473DCF0020006F082100CC002000F5
:1014D0006E082100CB0020006D082100CA0020000A
:1014E0006C082100C90000302000EF000030EE0041
:1014F0000030ED000030EC0000302100D30000305F
:10150000D2000030D1000030D000D501D92A5508D2
:1015100003198B2A8C2AAA2A0130C935CA0DCB0D92
:10152000CC0D890B8D2A01302000EC35ED0DEE0D30
:10153000EF0D890B942A2100D31F9F2AA02AA22AEB
:1015400020006C1401302100D035D10DD20DD30D07
:10155000890BA32A20006B0821004C02031DC02A1E
:1015600020006A0821004B02031DC02A20006908E0
:1015700021004A02031DC02A2000680821004902F8
:10158000031CC32AC42AD52A531720006808210047
:10159000C902200069082100CA3B20006A08210016
:1015A000CB3B20006B082100CC3B0130C400440839
:1015B000D5071A305502031CDE2ADF2A872A4C0879
:1015C0004B044A0449040319E62AE72A032B501462
:1015D000032B0130EC35ED0DEE0DEF0D890BEA2AF2
:1015E0002100D31FF42AF52AF72A20006C140130B9
:1015F0002100D035D10DD20DD30D890BF82AFF3043
:10160000CE07FF30CF3D2000EE1F072B082BE92A25
:101610002100D501D31F0D2B0E2B2C2BFF30500595
:10162000C400FF305105C500FF305205C6007F30B1
:101630005305C70047084604450444040319212BF9
:10164000222B262B2100D501D50A2C2B20006C1C27
:101650002A2B2B2B2C2B222B210055080319312B45
:10166000322B6A2B01302000EC070030ED3D0030BA
:10167000EE3D0030EF3D6F1C3E2B3F2B6A2B6C087C
:101680002100C40020006D082100C50020006E0864
:101690002100C60020006F082100C7000130C800EB
:1016A000C737C60CC50CC40CC80B502B470820000C
:1016B000EF00210046082000EE0021004508200030
:1016C000ED00210044082000EC0001302100CE078D
:1016D0000030CF3D21004F08803AC40080304402E2
:1016E000031D742BFF304E02031C772B782B862BA7
:1016F000FF302100CE000030CF0000302000EF008E
:101700000030EE000030ED000030EC0021004F080A
:10171000803AC40080304402031D902B01304E02F9
:101720000318932B942BA22B2100CE01CF01003064
:101730002000EF000030EE000030ED000030EC0043
:101740002100CD0121004E08D400541CA82BA92B48
:10175000AC2B2000EE17B12B7F30C40044082000D2
:10176000EE05210054362000EF0021004D08C40092
:1017700044082000EF043A2A080020004B08803972
:10178000D8004B35DA00CA1FC62BC72BC82B5A14FA
:101790005A080319CC2BCD2BDD2B5A0A031DD12B54
:1017A000D22BDA2B0030CB000030CA000030C90049
:1017B0000030C800CA17CB01E52B0030CB00003049
:1017C000CA000030C9000030C8004F088039D90075
:1017D000590858060319ED2BEE2BEF2B58174F35F0
:1017E000D900CE1FF42BF52BF62B591459080319E9
:1017F000FA2BFB2B0B2C590A031DFF2B002C082C5A
:101800000030CF000030CE000030CD000030CC00E2
:10181000CE17CF01132C0030CF000030CE000030A7
:10182000CD000030CC005A0859020318182C192C8E
:101830003F2C581F1C2C1D2C212C8030D000500810
:10184000D8065A08DB005908DA005B08D9004808B6
:10185000DB004C08C8005B08CC004908DB004D08E1
:10186000C9005B08CD004A08DB004E08CA005B08CF
:10187000CE004B08DB004F08CB005B08CF00DB013C
:101880005908D000D1015108D3005A085002D200A3
:10189000031CD3035308803AD40080305402031D44
:1018A000532C1A305202031C562C572C892C200022
:1018B0004B084A0449044804031D5F2C612C013085
:1018C000622C0030DB000030CB000030CA0000305A
:1018D000C9000030C8005908DA00902C5B1C712C3C
:1018E000722C762C5B360138DB00782C0310DB0C75
:1018F000481C7B2C7C2C7D2CDB170130D000CB3797
:10190000CA0CC90CC80CD00B7F2C0130D000500879
:10191000DA07200059085A02031C8F2C902C6E2CD9
:10192000581B932C942CCA2C5A08031D982C992CC4
:10193000A22C0030CB000030CA000030C9000030BB
:10194000C800C42D4C08C8074D08C93D4E08CA3D03
:101950004F08CB3D4B1CAD2CAE2C562D5B1CB12C37
:10196000B22CB62C5B360138DB00B82C0310DB0C34
:10197000481CBB2CBC2CBD2CDB170130D000CB3756
:10198000CA0CC90CC80CD00BBF2C0130D0005008B9
:10199000DA07562D4B08803AD0004F08803A5002A3
:1019A000031DDC2C4E084A02031DDC2C4D084902A5
:1019B000031DDC2C4C0848020318DF2CE02C182DEA
:1019C000FF30D000FF30D100FF30D200FF30D30015
:1019D00048084C02D40049084D3BD5004A084E3B0C
:1019E000D6004B084F3BD7005408D0075508D13DCF
:1019F0005608D23D5708D33D5308CB005208CA00C1
:101A00005108C9005008C8008030D0005008D806DE
:101A1000DB09DB0A5B08031D0E2D0F2D202D013085
:101A2000C8070030C93D0030CA3D0030CB3D202DF5
:101A30004C08C8024D08C93B4E08CA3B4F08CB3B77
:101A40004B084A0449044804031D272D282D522D14
:101A50005B08031D2C2D2D2D522D0030CB000030A6
:101A6000CA000030C9000030C800C42D0130C8359C
:101A7000C90DCA0DCB0D890B372DDB1F402D412D14
:101A8000422D48145B1C452D462D492D0314DB0DBA
:101A90004B2D0310DB0D5A0803194F2D502D522DDD
:101AA0000130DA02CA1F552D562D362DD901DB1F04
:101AB0005A2D5B2D692D5B087F390319602D612D2F
:101AC000642DD901D90A692D481C672D682D692D0F
:101AD000612D590803196D2D6E2D9B2D0130C807FE
:101AE0000030C93D0030CA3D0030CB3D4B1C792D44
:101AF0007A2D9B2D4808D0004908D1004A08D20011
:101B00004B08D3000130D400D337D20CD10CD00C09
:101B1000D40B842D5308CB005208CA005108C900C9
:101B20005008C8005A0A0319962D972D9B2D013095
:101B3000D0005008DA075A0A03199F2DA02DA52DB1
:101B40005A08031DA42DA52DB32D0030CB00003065
:101B5000CA000030C9000030C8005A08031DB12D6A
:101B6000B22DB32DD8015A1CB62DB72DB92DCA17D9
:101B7000BD2D7F30D0005008CA055A36CB00D81F83
:101B8000C22DC32DC42DCB17080020003108803989
:101B9000BB003135C100B01FCE2DCF2DD02D41144B
:101BA00041080319D42DD52DE42D410A031DD92D4B
:101BB000DA2DE22D0030B1000030B0000030AF006F
:101BC0000030AE00B017EC2D0030B1000030B00096
:101BD0000030AF000030AE0035088039B60036085E
:101BE000BB063535C000B41FF62DF72DF82D401477
:101BF00040080319FC2DFD2D0C2E400A031D012E5B
:101C0000022E0A2E0030B5000030B4000030B300C0
:101C10000030B200B417142E0030B5000030B4000C
:101C20000030B3000030B20040080319182E192EFE
:101C30001E2E4108031D1D2E1E2E272E0030B10022
:101C40000030B0000030AF000030AE00FF2F2E0893
:101C5000A00034089531BC258D3120002108C70033
:101C60002008C6004608B600B701B801B901390816
:101C7000BF003808BE003708BD003608BC00470862
:101C8000B600B701B801B9013908C5003808C40069
:101C90003708C3003608C2002F08A000330895316A
:101CA000BC258D3120002108C7002008C600460849
:101CB000B600B701B801B9013608BC073708BD3D09
:101CC0003808BE3D3908BF3D4708B600B701B80126
:101CD000B9013608C2073708C33D3808C43D390882
:101CE000C53D3008A00032089531BC258D3120005B
:101CF0002108C7002008C6004608B600B701B80191
:101D0000B9013608BC073708BD3D3808BE3D390863
:101D1000BF3D4708B600B701B801B9013608C20790
:101D20003708C33D3808C43D3908C53D0830BC35C7
:101D3000BD0DBE0DBF0D890B972E2F08A0003208D8
:101D40009531BC258D3120002108C7002008C60030
:101D50004608BC074708BD3D0030BE3DBF3D2E08CC
:101D6000A00033089531BC258D3120002108C70023
:101D70002008C6004608BC074708BD3D0030BE3DF0
:101D8000BF3D0830BC35BD0DBE0DBF0D890BC22E49
:101D90002E08A00032089531BC258D312000210885
:101DA000C7002008C6004608BC074708BD3D0030F4
:101DB000BE3DBF3D2F08A00034089531BC258D31B4
:101DC00020002108C7002008C6004608C2074708AF
:101DD000C33D0030C43DC53D3008A00033089531F7
:101DE000BC258D3120002108C7002008C600460808
:101DF000C2074708C33D0030C43DC53D3008A000C0
:101E000034089531BC258D3120002108C7002008F9
:101E1000C6004608B6004708B700B801B901083047
:101E2000B635B70DB80DB90D890B102F3608C2079E
:101E30003708C33D3808C43D3908C53D3C08B600E5
:101E40003D08B7003E08B8003F08B9001830B93661
:101E5000B80CB70CB60C890B272F3608C207370809
:101E6000C33D3808C43D3908C53D0830BC35BD0DFB
:101E7000BE0DBF0D890B362F41084007B600B701D4
:101E8000B70D3608823EC600FF30373DC7005F2FD2
:101E90000130C235C30DC40DC50D890B492FBF1FBD
:101EA000522F532F542F42140130BC35BD0DBE0D9F
:101EB000BF0D890B552FFF30C607FF30C73DC41F2C
:101EC000622F632F482FC001BF1F672F682F842FF9
:101ED000FF303C05B600FF303D05B700FF303E0542
:101EE000B8007F303F05B90039083804370436049C
:101EF00003197B2F7C2F7F2FC001C00A842F421C27
:101F0000822F832F842F7C2F40080319882F892F3D
:101F1000B12F0130C2070030C33D0030C43D003056
:101F2000C53D451C942F952FB12F4208B60043089C
:101F3000B7004408B8004508B9000130BA00B93705
:101F4000B80CB70CB60CBA0B9F2F3908C50038086F
:101F5000C4003708C3003608C2000130C60700308D
:101F6000C73D4708803AB60080303602031DBA2FBD
:101F7000FF304602031CBD2FBE2FC82F7F3020002C
:101F8000C5008030C4000030C3000030C200F32F11
:101F900020004708803AB60080303602031DD22F59
:101FA000013046020318D52FD62FE12F0030200034
:101FB000C5000030C4000030C3000030C200BB01C7
:101FC000F32F20004608C100FF30C205FF30C305D3
:101FD0007F30C4050030C505411CEF2FF02FF12FD5
:101FE000C4174136C5003B08B6003608C50445088D
:101FF000B1004408B0004308AF004208AE0008003A
:10255C000800080008003B009F1708003B00AF175D
:10256C00080020001A140800943127249231080026
:10257C0023001D121D16080094314024923171085D
:10258C002200BF007008BE00080094314024923134
:10259C0071082200C5007008C40008002000210842
:1025AC003B009400200020083B0093000800200012
:1025BC0021083B00A400200020083B00A3000800D9
:1025CC00200021082200D300200020082200D20085
:1025DC000800200021082200C7002000200822004B
:1025EC00C6000800200021082200CB002000200893
:1025FC002200CA000800200021082200C900200087
:10260C0020082200C8000800200021082200CD006C
:10261C00200020082200CC00080020002108220005
:10262C00CF00200020082200CE0008002000210846
:10263C002200E000200020082200DF00080020001B
:10264C0021082200DE00200020082200DD00080006
:10265C00200021082200DC00200020082200DB00E2
:10266C000800200021082200DA00200020082200A7
:10267C00D9000800200021083B00B40020002008ED
:10268C003B00B300080090302C009600FF30950002
:10269C00C0309400FC3025009F05080090302C00C1
:1026AC009900FF309800C0309700F33025009F054B
:1026BC00080090302C009C00FF309B00C0309A002A
:1026CC00CF3025009F050800703021009B00803022
:1026DC009C009A019D011C1F742B752B712B0800FB
:1026EC002000230822042104200403197E2B7F2BB5
:1026FC00812B8030A3060800200011132200520801
:10270C00530403198A2B8B2B902B53088A005208E5
:10271C000A009331080022005F0860040319972B0C
:10272C00982B9D2B60088A005F080A0093312700C4
:10273C001610080022005D085E040319A62BA72BB7
:10274C00AC2B5E088A005D080A00933127009610B6
:10275C00080022005B085C040319B52BB62BBB2BBD
:10276C005C088A005B080A009331270019110800E5
:10277C00220059085A040319C42BC52BCA2B5A081A
:10278C008A0059080A00933127009911080001307A
:10279C0029009700203096009801FF309400930197
:1027AC0020009110D03029009500080020009B01DA
:1027BC0099019801111019082200D1002000180865
:1027CC002200D000113020009A0008007F30200039
:1027DC00A700FF30A600FF30A500FF30A40027089B
:1027EC00A3002608A2002508A1002408A0000800C8
:1027FC00A0302900910092018E018F0101309000D0
:10280C0021001117AE302000A0001230A10092312F
:10281C00E622933108003B00BC01BD01BE01BF01A3
:10282C00C001B201B1017D30B400B3017D30B600FE
:10283C00B501B8013F30B700BA01B9019030BB0007
:10284C0008007D08283E8600013087002300190807
:10285C0081000130F0007008FD0708307D02031C78
:10286C00382C392C3A2CFD010130F0007008220074
:10287C00D507080020001808FA001908F9007A0892
:10288C00F200F3017908F400F5017408F500F40185
:10289C0072087404F70073087504F8007808F100E6
:1028AC007708F00008003B00AC01AD014030AE00F1
:1028BC00AF01B001A201A1010B30A400B730A300FD
:1028CC009C30A6003F30A500A8010330A700AA0148
:1028DC00A9018030AB00080020002108A3002008CB
:1028EC00A200A336A20CA336A20C22082C0098003E
:1028FC00200020080339A2000530A235FF3E031D3D
:10290C00832C22352C009700080020002108A300FE
:10291C002008A200A336A20CA336A20C22082C007D
:10292C009500200020080339A2000530A235FF3E97
:10293C00031D9C2C22352C0094000800200021083B
:10294C00A3002008A200A336A20CA336A20C2208D6
:10295C002C009B00200020080339A2000530A23572
:10296C00FF3E031DB52C22352C009A0008003B00BD
:10297C009C019D0140309E0001309F000130A00061
:10298C00920191010B309400B73093009C3096006B
:10299C003F3095009801033097009A0199018030DF
:1029AC009B00080094314024943171082200BD0032
:1029BC007008BC003D08803AFB003F08803A7B025F
:1029CC00031DEA2C3E083C020318ED2CEE2CEF2CD8
:1029DC00F62C22003E083C02BA003F083D3BBB00EF
:1029EC00080094314024943171082200C30070080F
:1029FC00C2004308803AFB004508803A7B02031D65
:102A0C00092D4408420203180C2D0D2D0E2D152DE9
:102A1C00220044084202C0004508433BC1000800A4
:102A2C002000AD01AE01291C1C2D1D2D212D2B08C4
:102A3C00AD072C08AE3D0130AB35AC0D890B222D0A
:102A4C000130AA36A90C890B272D29082A04031D4D
:102A5C00302D312D192D2E08AA002D08A9000800A3
:102A6C002700161C3A2D3B2D3E2D93319123953189
:102A7C002700961C422D432D462D9331A0239531D2
:102A8C002700191D4A2D4B2D4E2D9331AF23953117
:102A9C002700991D522D532D562D9331BE23953160
:102AAC00080001302000AF00FC30B0009631082641
:102ABC00953101302000AF00FC30B0009631782603
:102ACC009531FF302000AF000330B00087319527DF
:102ADC009531FF302000AF000330B0009631402616
:102AEC0095310800FF302000AF000330B000963164
:102AFC0008269531FF302000AF000330B00096312E
:102B0C007826953101302000AF00FC30B0008731C1
:102B1C009527953101302000AF00FC30B000963184
:102B2C0040269531080008302200560203189F2DCC
:102B3C00A02DB92D5708303E8600013087000108C2
:102B4C0023009A000130F00070082200D7070830EB
:102B5C005702031CB22DB32DB42DD7010130F00058
:102B6C007008D607BB2D2100111208002000A80008
:102B7C00A401A5012008A200A3012208A600230895
:102B8C00A700281CCA2DCB2DCF2D2608A40727085B
:102B9C00A53D0130A635A70D890BD02D0310A80C2F
:102BAC002808031DDA2DDB2DC72D2508A1002408CC
:102BBC00A000080088310720953193316A239531A4
:102BCC00883103209531943111249531933154235C
:102BDC0095319331CD2395319431592495319331DD
:102BEC00FE2395319331492395319431BD24953190
:102BFC009331DC23953193315F2395319631ED265A
:102C0C009531080020003008803AB1008030310244
:102C1C00031D122E01302F02031C152E162E222EF0
:102C2C0022008E130E1720003008A1002F08A000E0
:102C3C009431722496313F2E2000B01F262E272E61
:102C4C003B2EFF30A900FF30AA003008AC002F0843
:102C5C00AB0095311625963120002A08B0002908C2
:102C6C00AF0022008E170E13192E22008E170E178E
:102C7C00192E080020003008803AB1008030310253
:102C8C00031D4A2E01302F02031C4D2E4E2E5A2EA0
:102C9C0022008F170F1320003008A1002F08A0006E
:102CAC0094318B249631772E2000B01F5E2E5F2E30
:102CBC00732EFF30A900FF30AA003008AC002F089B
:102CCC00AB0095311625963120002A08B000290852
:102CDC00AF0022008F130F17512E22008F170F17E2
:102CEC00512E080020003008803AB10080303102AB
:102CFC00031D822E01302F02031C852E862E922E50
:102D0C0022008D110D1520003008A1002F08A00005
:102D1C009431A4249631AF2E2000B01F962E972EFE
:102D2C00AB2EFF30A900FF30AA003008AC002F08F2
:102D3C00AB0095311625963120002A08B0002908E1
:102D4C00AF0022008D150D11892E22008D150D1549
:102D5C00892E08007D08203E860001308700810105
:102D6C0023001D1DBA2EBB2EC72E7D08203E8600CB
:102D7C0001308700811422004B088A004A080A009F
:102D8C00963123009D1CCB2ECC2ED82E7D08203EB8
:102D9C008600013087000115220049088A00480886
:102DAC000A0096317D08203E86000130870001081C
:102DBC000319E12EE22EE92E220047088A0046086C
:102DCC000A009631EC2E943127249631080021000C
:102DDC009112B0302000A0001630A10093310A23CC
:102DEC0096312100111299302000A0001530A1005D
:102DFC00933113239631083023009F0090309D00AF
:102E0C0024309E0044309B009C01AF302000A00079
:102E1C001230A1009231F8229631BE302000A00071
:102E2C001230A100933101239631BA302000A0005A
:102E3C001230A1009231EF2296312200D401D80138
:102E4C00D7010830D600FD01FC01D50121009116F7
:102E5C0008002000A601A11F342F352F3C2FA009FC
:102E6C00A109A00A0319A10AA601A60AA31F3F2FB4
:102E7C00402F492FA209A309A20A0319A30A013062
:102E8C00A4002408A606A701A80120082104031900
:102E9C00502F512F802FA501A50A5D2F0130A03591
:102EAC00A10D890B552F0130A4002408A507A11FE3
:102EBC00602F612F542F0130A735A80D890B622F7D
:102ECC0021082302031D6C2F20082202031C6F2FE4
:102EDC00702F752F2008A2022108A33B2714013064
:102EEC00A136A00C890B762F0130A502031D7F2F74
:102EFC00802F612F26080319842F852F8A2FA7096D
:102F0C00A809A70A0319A80A2808A1002708A000E5
:102F1C000800031020005E0D5F0DE5006508031D21
:102F2C00982F992FA22F0030DF000030DE000030E8
:102F3C00DD000030DC00FF2F5C08E0005D08E100E4
:102F4C005E08E2005F08E3001F30E336E20CE10CA0
:102F5C00E00C890BAB2F6008E400DE17FF30DC05BA
:102F6C00FF30DD05FF30DE050030DF059630E50271
:102F7C00E51FC12FC22FDA2F6508803A973E031840
:102F8C00C82FC92FCA2F992F0130DF36DE0CDD0C6C
:102F9C00DC0C890BCB2F0130E0006008E507031D2A
:102FAC00D82FD92FCA2FEF2F20306502031CDF2F0B
:102FBC00E02FEA2F992F0130DC35DD0DDE0DDF0D12
:102FCC00890BE22F0130E5026508031DEE2FEF2F70
:102FDC00E12F64080319F32FF42FFF2FDC09DD090F
:102FEC00DE09DF09DC0A0319DD0A0319DE0A0319FD
:0E2FFC00DF0A080060344234A2340D34003481
:020000040001F9
:08000000FF3FFF3FFF3FFF3F00
:04000E00E43FFF1FAD
:00000001FF
