:1000000080316428080008007E1480318B1D092887
:100010000A2812280B1C0D280E28122895313E257F
:10002000803162280B1F1528162862282100111F15
:100030001A281B2824282000111F1F2820282428C4
:1000400093313023803162282100111E282829286D
:1000500035282000111E2D282E283528220057086B
:100060008A0056080A00803162282100911E392832
:100070003A2846282000911E3E283F284628220084
:1000800055088A0054080A00803162282100141E95
:100090004A284B2854282000141E4F285028542842
:1000A00093312223803162282100141D58285928B9
:1000B00062282000141D5D285E28622893311423D5
:1000C000803162287E10090080316628220092313A
:1000D00024228031E500923125228031E6009231E0
:1000E00026228031E700923127228031E800FC018E
:1000F000FD01E8308400003085000830883101209F
:10010000803120308400013085003D30883101206D
:1001100080317E10200080318D289531E725803197
:100120008B170B1728302000A0001230A10092314D
:1001300082228031E0302000A0001430A1009231F2
:100140008B22803131302000A0001230A10092318A
:1001500094228031FF302000A0001430A1009231A1
:100160009D2280310B302000A0001230A10092317E
:10017000A622803102302000A0000030A100923180
:10018000AF22803100302000AF00B00097319C27B3
:10019000803100302000AF00B0009631152680314C
:1001A00000302000AF00B00096314D268031003085
:1001B0002000AF00B0009631852680312930210023
:1001C000D7009630D6007F30890BE428D60BE42880
:1001D000D70BE42892311222803140302000DF001A
:1001E0000030DE000030DD000030DC0084317B2494
:1001F000803120005F08EB005E08EA005D08E9003E
:100200005C08E8003F30EF008030EE000030ED0089
:100210000030EC008931BD21803120006B082100C5
:10022000E30020006A082100E200200069082100A4
:10023000E100200068082100E0002200660820009C
:10024000A100220065082000A000923143228031E5
:1002500092310F228031220068082000A100220084
:1002600067082000A00092313A22803192310C229E
:10027000803122004208F23E2100D800F9302200ED
:10028000433D2100D90022004808F23E2100DA0057
:10029000F9302200493D2100DB0058082000A00071
:1002A000210059082000A100890D893B8909A2007D
:1002B000A300013089311221803120002308B500CC
:1002C0002208B4002108B3002008B200210063080E
:1002D0002000B100210062082000B0002100610868
:1002E0002000AF00210060082000AE008D31C52540
:1002F000803120003108CF003008CE002F08CD001B
:100300002E08CC0021005A082000A00021005B0824
:100310002000A100890D893B8909A200A3000130BA
:1003200089311221803120002308B5002208B40051
:100330002108B3002008B200210063082000B100AA
:10034000210062082000B000210061082000AF00F9
:10035000210060082000AE008D31C52580312000CD
:100360003108CB003008CA002F08C9002E08C80089
:100370008B31BD23803120004B08DF004A08DE00AE
:100380004908DD004808DC0087318F2780312000D4
:100390005D082100E50020005C082100E400580809
:1003A0002000A000210059082000A100890D893BF0
:1003B0008909A200A3000130893112218031200077
:1003C0002308B5002208B4002108B3002008B200B9
:1003D000210063082000A300210062082000A20081
:1003E000210061082000A100210060082000A00079
:1003F0009231EE22803120002308B1002208B000A3
:100400002108AF002008AE008D31C52580312000C5
:100410003108CF003008CE002F08CD002E08CC00C8
:1004200021005A082000A00021005B082000A10044
:10043000890D893B8909A200A3000130893112216D
:10044000803120002308B5002208B4002108B30041
:100450002008B200210063082000B10021006208DA
:100460002000B000210061082000AF0021006008DA
:100470002000AE008D31C525803120003108CB0031
:100480003008CA002F08C9002E08C8008B31BD23D0
:10049000803120004B08DF004A08DE004908DD00FB
:1004A0004808DC0087318F27803120005D0821005B
:1004B000E70020005C082100E6006508803AD600CD
:1004C00083305602031D662A85306402031C692AA4
:1004D0006A2A702AE8302100E4000330E500A42AEB
:1004E00021006508803AD6007F305602031D7A2A23
:1004F000ED306402031C7D2A7E2A902A21006508C3
:10050000803AD60080305602031D882A14306402D7
:1005100003188B2A8C2A902A2100E401E501A42AE1
:1005200021006508803AD6007E305602031D9A2AC3
:100530000C30640203189D2A9E2AA42A0C30210044
:10054000E400FE30E500A42A21006708803AD600C6
:1005500083305602031DAE2A85306602031CB12A81
:10056000B22AB82AE8302100E6000330E700EC2A7E
:1005700021006708803AD6007F305602031DC22A48
:10058000ED306602031CC52AC62AD82A2100670856
:10059000803AD60080305602031DD02A14306602FD
:1005A0000318D32AD42AD82A2100E601E701EC2A2D
:1005B00021006708803AD6007E305602031DE22AE9
:1005C0000C3066020318E52AE62AEC2A0C302100DA
:1005D000E600FE30E700EC2A21006508803AD600EC
:1005E00080305602031DF62A01306402031CF92AEA
:1005F000FA2A1F2B84302000A0000330A100210024
:1006000065082000A300210064082000A2009731A3
:100610003C27803120002108AA002008A900FF30D3
:10062000AB000330AC0095311E25803120002A0834
:100630002100DD00200029082100DC004B2B2100D7
:10064000E51F232B242B492BF4302000A000013080
:10065000A100210065082000A300210064082000FB
:10066000A20097313C27803120002108AA002008F1
:10067000A900FF30AB000330AC0095311E2580315E
:1006800020002A082100DD00200029082100DC00CC
:100690004B2BDC01DD016708803AD6008030560222
:1006A000031D542B01306602031C572B582B7D2B46
:1006B00084302000A0000330A10021006708200042
:1006C000A300210066082000A20097313C2780315A
:1006D00020002108AA002008A900FF30AB00033049
:1006E000AC0095311E25803120002A082100DF0052
:1006F000200029082100DE00A92B2100E71F812B03
:10070000822BA72BF4302000A0000130A100210093
:1007100067082000A300210066082000A20097318E
:100720003C27803120002108AA002008A900FF30C2
:10073000AB000330AC0095311E25803120002A0823
:100740002100DF00200029082100DE00A92BDE01A6
:10075000DF0120008C19AD2BAE2BB62B8C1BB12BDF
:10076000B22BB62B953180258031EE2B0C1BB92B8B
:10077000BA2BC22B0E18BD2BBE2BC22B95315F2579
:100780008031EE2B21005F082000B00021005E08C0
:100790002000AF0097319C27803121005D082000A8
:1007A000B00021005C082000AF0096311526803192
:1007B00021005D082000B00021005C082000AF008F
:1007C00096314D26803121005F082000B0002100C5
:1007D0005E082000AF0096318526803120000C1F76
:1007E000F22BF32B152C0E18F62BF72B152C2200C1
:1007F0006808803A2100D60091305602031D032C70
:10080000F830220067020318062C072C152C013043
:100810002200E7070030E83D0B302100D6006230AF
:10082000890B102CD60B102C000020000E1C192C4C
:100830001A2C3C2C0C1B1D2C1E2C3C2C2200680856
:10084000803A2100D60088305602031D2A2CFD3044
:1008500022006702031C2D2C2E2C3C2CFF30220082
:10086000E707FF30E83D0B302100D6006230890BEE
:10087000372CD60B372C000020008C1D402C412C2F
:100880005A2C8C1B442C452C5A2C22006608803A8A
:100890002100D6008F305602031D512CA0302200BB
:1008A00065020318542C552C5A2C01302200E50700
:1008B0000030E63D20008C1F5E2C5F2C1D298C191A
:1008C000622C632C1D2922006608803A2100D60084
:1008D00089305602031D6F2CC53022006502031CAF
:1008E000722C732C1D29FF302200E507FF30E63DF6
:1008F0001D298031642820005F082100AB00200002
:100900005E082100AA0020005D082100A900200047
:100910005C082100A8002B08C3002A08C20029088F
:10092000C1002808C000003040052000E000003071
:10093000210041052000E100803021004205200017
:10094000E2007F30210043052000E3008030620692
:100950007F300319630660046104031DB02CB12CC1
:10096000E32C20005F08CB005E08CA005D08C900C8
:100970005C08C8005F08B1005E08B0005D08AF0009
:100980005C08AE005F08B5005E08B4005D08B30007
:100990005C08B2008D31C525843120003108CF00BC
:1009A0003008CE002F08CD002E08CC008B31BD239F
:1009B000843120004B08DF004A08DE004908DD00D2
:1009C0004808DC008E2F2100C31BF52C4308031DB3
:1009D000F42C4208031DF42C4108031DF42C0130B3
:1009E00040020318F42CF52C2E2DFF302100400579
:1009F0002000E000FF30210041052000E100FF3031
:100A0000210042052000E2007F3021004305200044
:100A1000E3006308620461046004031D102D112DBE
:100A2000122D8E2F2100C31F162D172D2E2D213094
:100A30002200B8000030B90004302000A000983037
:100A4000A1009331BC23843120002308DF00220859
:100A5000DE002108DD002008DC008E2F2100400888
:100A60002000E000210041082000E10021004208B0
:100A70002000E200210043082000E3001730E400DA
:100A8000E337E20CE10CE00CE40B402D630821009D
:100A9000BB00200062082100BA002000610821008C
:100AA000B900200060082100B8003B083A0439046E
:100AB0003804031D5C2D5D2DA12D0030A7000030F2
:100AC000A6000030A5000030A400752D0130C0350F
:100AD000C10DC20DC30D890B672D0130A407003075
:100AE000A53D0030A63D0030A73DC21F782D792DD1
:100AF000662DFF302000E000FF30E100FF30E20013
:100B0000FF30E300210024082000E0072100250831
:100B10002000E13D210026082000E23D21002708B9
:100B20002000E33D60082100B80220006108210098
:100B3000B93B200062082100BA3B20006308210075
:100B4000BB3B8130B807FF30B93DFF30BA3DFF30C5
:100B5000BB3D00302000E0000030E1008030E200CA
:100B60000030E300FF30210040052000E400FF30AA
:100B7000210041052000E5007F30210042052000D2
:100B8000E6000030210043052000E7006408E0048F
:100B90006508E1046608E2046708E30463082100CD
:100BA000C300200062082100C2002000610821006B
:100BB000C100200060082100C000381CE02DE12D9C
:100BC000E92D4008C0074108C13D4208C23D430825
:100BD000C33D01302000E0002100BB37BA0CB90C46
:100BE000B80C2000E00BEC2D21004008C0074108A4
:100BF000C13D4208C23D4308C33D0030A300003060
:100C0000A2000030A1000030A0002308AF0022089D
:100C1000AE002108AD002008AC000130BF0000305C
:100C2000BE000030BD000030BC00932E3C08200701
:100C30002000E00021003D08213D2000E1002100CE
:100C40003E08223D2000E20021003F08233D200015
:100C5000E30063082100B300200062082100B20015
:100C6000200061082100B100200060082100B000D0
:100C70004308803A2000E00021003308803A200039
:100C800060022100031D4E2E32084202031D4E2E2B
:100C900031084102031D4E2E30084002031C512E24
:100CA000522E842E3C0830072000E00021003D0831
:100CB000313D2000E10021003E08323D2000E200ED
:100CC00021003F08333D2000E30063082100A3001A
:100CD000200062082100A200200061082100A1007C
:100CE000200060082100A0003008C0023108C13B8C
:100CF0003208C23B3308C33B3C08AC073D08AD3D5E
:100D00003E08AE3D3F08AF3D4008C0074108C13D29
:100D10004208C23D4308C33D0130BF36BE0CBD0C86
:100D2000BC0C890B8D2E3F083E043D043C04031D82
:100D30009A2E9B2E162E43084204410440040319A8
:100D4000A22EA32E1F2F3F30B7008030B6000030F8
:100D5000B5000030B40037082000A3002100360899
:100D60002000A200210035082000A1002100340845
:100D70002000A0003F30A7008030A6000030A50072
:100D80000030A400883187208431031CC82EC92E6E
:100D90001F2F3F302100B7008030B6000030B50073
:100DA0000030B4003F302000A3008030A2000030AB
:100DB000A1000030A000210037082000A70021007A
:100DC00036082000A600210035082000A5002100DB
:100DD00034082000A4008831872084310318F12EC4
:100DE000F22EFC2E02302100AC070030AD3D003069
:100DF000AE3D0030AF3D1F2F013021002C052000FB
:100E0000E000003021002D052000E100003021002D
:100E10002E052000E200003021002F052000E30015
:100E200060082100AC07200061082100AD3D2000D2
:100E300062082100AE3D200063082100AF3D210083
:100E40002C082000E00021002D082000E1002100F6
:100E50002E082000E20021002F082000E3000130CE
:100E6000E400E337E20CE10CE00CE40B312F00303E
:100E700060072100C00000302000613D2100C1005A
:100E800000302000623D2100C2003F302000633D61
:100E90002100C30038082000E000210039082000AC
:100EA000E10021003A082000E20021003B08200078
:100EB000E3001730E035E10DE20DE30D890B5A2F09
:100EC00060082100C007200061082100C13D20000A
:100ED00062082100C23D200063082100C33D430891
:100EE000AB004208AA004108A9004008A8002B084E
:100EF000B7002A08B6002908B5002808B40037084A
:100F00002000DF00210036082000DE002100350827
:100F10002000DD00210034082000DC000800031060
:100F200020005E0D5F0DE5006508031D982F992FC9
:100F3000A22F0030DF000030DE000030DD00003086
:100F4000DC00FF2F5C08E0005D08E1005E08E200C5
:100F50005F08E3001F30E336E20CE10CE00C890B84
:100F6000AB2F6008E400DE17FF30DC05FF30DD0545
:100F7000FF30DE050030DF059630E502E51FC12FAA
:100F8000C22FDA2F6508803A973E0318C82FC92F61
:100F9000CA2F992F0130DF36DE0CDD0CDC0C890BFB
:100FA000CB2F0130E0006008E507031DD82FD92FB3
:100FB000CA2FEF2F20306502031CDF2FE02FEA2F0E
:100FC000992F0130DC35DD0DDE0DDF0D890BE22FB1
:100FD0000130E5026508031DEE2FEF2FE12F6408B5
:100FE0000319F32FF42FFF2FDC09DD09DE09DF09D8
:100FF000DC0A0319DD0A0319DE0A0319DF0A0800F7
:101000000800640080010131890B022800342200AD
:1010100090018F018C018D018E010730210090001D
:10102000CF308C00E3308D000F308E0011308F00F8
:1010300023008F018E018D010730900027308C0036
:1010400024008F0190018D018C018E0121009717E2
:10105000250090018C018D018E018F01FF3026004B
:101060008C00FF308D00FF308E00FF308F00073086
:1010700090003F3027008C00F0308D00FF308E0054
:10108000FF308F001610961015109514141494103C
:10109000191199111811981517159711073020007B
:1010A000A0001230A1009231822288310830200045
:1010B000A0001230A10092318B228831093020002B
:1010C000A0001230A1009231942288310A30200011
:1010D000A0001230A10092319D2288318B151E3064
:1010E0003D00AA000D303C00BD001B303D009400C7
:1010F0001A30AD000E303C00B9001D303D00AB0091
:101100001930950024309C001F30A90008000030E1
:1011100020002005A80000302105A900803022050C
:10112000AA007F302305AB002B082A0429042804D9
:10113000031D9B289C28A4280030A3000030A20097
:101140000030A1000030A00000302405A8000030CD
:101150002505A90080302605AA007F302705AB00B1
:101160002B082A0429042804031DB728B828C028FE
:101170000030A7000030A6000030A5000030A40019
:10118000A31FC328C428DC280030A8000030A90011
:101190000030AA008030AB002008A8022108A93B3B
:1011A0002208AA3B2308AB3B2B08A3002A08A20075
:1011B0002908A1002808A000A71FDF28E028F82898
:1011C0000030A8000030A9000030AA008030AB0039
:1011D0002408A8022508A93B2608AA3B2708AB3B00
:1011E0002B08A7002A08A6002908A5002808A400A3
:1011F0008030A3068030A70627082302031D0A2992
:1012000026082202031D0A2925082102031D0A2996
:101210002408200203180D290E2910290310112972
:10122000031408002000A800280803191829192908
:101230002D29A31F1C291D292D292009AA002109B8
:10124000AB002209AC002309AD00AA0A0319AB0ABE
:101250000319AC0A0319AD0A35292308AD00220889
:10126000AC002108AB002008AA00230822042104B6
:101270002004031D3C293D2946290030A3000030ED
:10128000A2000030A1000030A000BC299630A900C7
:1012900054290130A4002408A9070130AD36AC0C54
:1012A000AB0CAA0C890B4E29FE302D05031D5929C4
:1012B0005A2949296E290130A4002408A9070130C0
:1012C000AA070030AB3D0030AC3D0030AD3D0130F1
:1012D000AD36AC0CAB0CAA0C890B6829FF302D0580
:1012E000031D732974295B297E290130A90201306D
:1012F000AA35AB0DAC0DAD0D890B7829AC1B81293E
:10130000822988290230290203188729882975290A
:1013100029188B298C299429FF30AA05FF30AB05A9
:101320007F30AC05FF30AD050310A90C2908A400DF
:10133000A501A601A7011830A435A50DA60DA70D7E
:10134000890B9C292408AA042508AB042608AC04B0
:101350002708AD0428080319AE29AF29B429A31F13
:10136000B229B329B429AD172D08A3002C08A20077
:101370002B08A1002A08A000080020006F0880396F
:101380002100CD0020006F352100D4002000EE1F89
:10139000CA29CB29CD29210054142100540803194E
:1013A000D229D329E529540A031DD729D829E129AF
:1013B00000302000EF000030EE000030ED00003083
:1013C000EC002000EE17EF01EE2900302000EF00C6
:1013D0000030EE000030ED000030EC006B0880398A
:1013E0002100C4004408CD0620006B352100D50043
:1013F0002000EA1FFC29FD29FF29210055142100A6
:1014000055080319042A052A172A550A031D092A13
:101410000A2A132A00302000EB000030EA000030D6
:10142000E9000030E8002000EA17EB01202A003034
:101430002000EB000030EA000030E9000030E80056
:101440006B086A0469046804031D272A282A432AB2
:101450000030EF000030EE000030ED000030EC0016
:101460008030EE047F30EF0421004D08C4004408B2
:101470002000EF046F08EB006E08EA006D08E90039
:101480006C08E800BC2B21005408031D482A492A97
:10149000532A00302000EB000030EA000030E90061
:1014A0000030E800BC2B5408C400C5014508C70043
:1014B00055084402C600031CC70346087F3ECE0001
:1014C0000030473DCF0020006F082100CC002000F5
:1014D0006E082100CB0020006D082100CA0020000A
:1014E0006C082100C90000302000EF000030EE0041
:1014F0000030ED000030EC0000302100D30000305F
:10150000D2000030D1000030D000D501D92A5508D2
:1015100003198B2A8C2AAA2A0130C935CA0DCB0D92
:10152000CC0D890B8D2A01302000EC35ED0DEE0D30
:10153000EF0D890B942A2100D31F9F2AA02AA22AEB
:1015400020006C1401302100D035D10DD20DD30D07
:10155000890BA32A20006B0821004C02031DC02A1E
:1015600020006A0821004B02031DC02A20006908E0
:1015700021004A02031DC02A2000680821004902F8
:10158000031CC32AC42AD52A531720006808210047
:10159000C902200069082100CA3B20006A08210016
:1015A000CB3B20006B082100CC3B0130C400440839
:1015B000D5071A305502031CDE2ADF2A872A4C0879
:1015C0004B044A0449040319E62AE72A032B501462
:1015D000032B0130EC35ED0DEE0DEF0D890BEA2AF2
:1015E0002100D31FF42AF52AF72A20006C140130B9
:1015F0002100D035D10DD20DD30D890BF82AFF3043
:10160000CE07FF30CF3D2000EE1F072B082BE92A25
:101610002100D501D31F0D2B0E2B2C2BFF30500595
:10162000C400FF305105C500FF305205C6007F30B1
:101630005305C70047084604450444040319212BF9
:10164000222B262B2100D501D50A2C2B20006C1C27
:101650002A2B2B2B2C2B222B210055080319312B45
:10166000322B6A2B01302000EC070030ED3D0030BA
:10167000EE3D0030EF3D6F1C3E2B3F2B6A2B6C087C
:101680002100C40020006D082100C50020006E0864
:101690002100C60020006F082100C7000130C800EB
:1016A000C737C60CC50CC40CC80B502B470820000C
:1016B000EF00210046082000EE0021004508200030
:1016C000ED00210044082000EC0001302100CE078D
:1016D0000030CF3D21004F08803AC40080304402E2
:1016E000031D742BFF304E02031C772B782B862BA7
:1016F000FF302100CE000030CF0000302000EF008E
:101700000030EE000030ED000030EC0021004F080A
:10171000803AC40080304402031D902B01304E02F9
:101720000318932B942BA22B2100CE01CF01003064
:101730002000EF000030EE000030ED000030EC0043
:101740002100CD0121004E08D400541CA82BA92B48
:10175000AC2B2000EE17B12B7F30C40044082000D2
:10176000EE05210054362000EF0021004D08C40092
:1017700044082000EF043A2A080020004B08803972
:10178000D8004B35DA00CA1FC62BC72BC82B5A14FA
:101790005A080319CC2BCD2BDD2B5A0A031DD12B54
:1017A000D22BDA2B0030CB000030CA000030C90049
:1017B0000030C800CA17CB01E52B0030CB00003049
:1017C000CA000030C9000030C8004F088039D90075
:1017D000590858060319ED2BEE2BEF2B58174F35F0
:1017E000D900CE1FF42BF52BF62B591459080319E9
:1017F000FA2BFB2B0B2C590A031DFF2B002C082C5A
:101800000030CF000030CE000030CD000030CC00E2
:10181000CE17CF01132C0030CF000030CE000030A7
:10182000CD000030CC005A0859020318182C192C8E
:101830003F2C581F1C2C1D2C212C8030D000500810
:10184000D8065A08DB005908DA005B08D9004808B6
:10185000DB004C08C8005B08CC004908DB004D08E1
:10186000C9005B08CD004A08DB004E08CA005B08CF
:10187000CE004B08DB004F08CB005B08CF00DB013C
:101880005908D000D1015108D3005A085002D200A3
:10189000031CD3035308803AD40080305402031D44
:1018A000532C1A305202031C562C572C892C200022
:1018B0004B084A0449044804031D5F2C612C013085
:1018C000622C0030DB000030CB000030CA0000305A
:1018D000C9000030C8005908DA00902C5B1C712C3C
:1018E000722C762C5B360138DB00782C0310DB0C75
:1018F000481C7B2C7C2C7D2CDB170130D000CB3797
:10190000CA0CC90CC80CD00B7F2C0130D000500879
:10191000DA07200059085A02031C8F2C902C6E2CD9
:10192000581B932C942CCA2C5A08031D982C992CC4
:10193000A22C0030CB000030CA000030C9000030BB
:10194000C800C42D4C08C8074D08C93D4E08CA3D03
:101950004F08CB3D4B1CAD2CAE2C562D5B1CB12C37
:10196000B22CB62C5B360138DB00B82C0310DB0C34
:10197000481CBB2CBC2CBD2CDB170130D000CB3756
:10198000CA0CC90CC80CD00BBF2C0130D0005008B9
:10199000DA07562D4B08803AD0004F08803A5002A3
:1019A000031DDC2C4E084A02031DDC2C4D084902A5
:1019B000031DDC2C4C0848020318DF2CE02C182DEA
:1019C000FF30D000FF30D100FF30D200FF30D30015
:1019D00048084C02D40049084D3BD5004A084E3B0C
:1019E000D6004B084F3BD7005408D0075508D13DCF
:1019F0005608D23D5708D33D5308CB005208CA00C1
:101A00005108C9005008C8008030D0005008D806DE
:101A1000DB09DB0A5B08031D0E2D0F2D202D013085
:101A2000C8070030C93D0030CA3D0030CB3D202DF5
:101A30004C08C8024D08C93B4E08CA3B4F08CB3B77
:101A40004B084A0449044804031D272D282D522D14
:101A50005B08031D2C2D2D2D522D0030CB000030A6
:101A6000CA000030C9000030C800C42D0130C8359C
:101A7000C90DCA0DCB0D890B372DDB1F402D412D14
:101A8000422D48145B1C452D462D492D0314DB0DBA
:101A90004B2D0310DB0D5A0803194F2D502D522DDD
:101AA0000130DA02CA1F552D562D362DD901DB1F04
:101AB0005A2D5B2D692D5B087F390319602D612D2F
:101AC000642DD901D90A692D481C672D682D692D0F
:101AD000612D590803196D2D6E2D9B2D0130C807FE
:101AE0000030C93D0030CA3D0030CB3D4B1C792D44
:101AF0007A2D9B2D4808D0004908D1004A08D20011
:101B00004B08D3000130D400D337D20CD10CD00C09
:101B1000D40B842D5308CB005208CA005108C900C9
:101B20005008C8005A0A0319962D972D9B2D013095
:101B3000D0005008DA075A0A03199F2DA02DA52DB1
:101B40005A08031DA42DA52DB32D0030CB00003065
:101B5000CA000030C9000030C8005A08031DB12D6A
:101B6000B22DB32DD8015A1CB62DB72DB92DCA17D9
:101B7000BD2D7F30D0005008CA055A36CB00D81F83
:101B8000C22DC32DC42DCB17080020003108803989
:101B9000BB003135C100B01FCE2DCF2DD02D41144B
:101BA00041080319D42DD52DE42D410A031DD92D4B
:101BB000DA2DE22D0030B1000030B0000030AF006F
:101BC0000030AE00B017EC2D0030B1000030B00096
:101BD0000030AF000030AE0035088039B60036085E
:101BE000BB063535C000B41FF62DF72DF82D401477
:101BF00040080319FC2DFD2D0C2E400A031D012E5B
:101C0000022E0A2E0030B5000030B4000030B300C0
:101C10000030B200B417142E0030B5000030B4000C
:101C20000030B3000030B20040080319182E192EFE
:101C30001E2E4108031D1D2E1E2E272E0030B10022
:101C40000030B0000030AF000030AE00FF2F2E0893
:101C5000A00034089531C3258D3120002108C7002C
:101C60002008C6004608B600B701B801B901390816
:101C7000BF003808BE003708BD003608BC00470862
:101C8000B600B701B801B9013908C5003808C40069
:101C90003708C3003608C2002F08A000330895316A
:101CA000C3258D3120002108C7002008C600460842
:101CB000B600B701B801B9013608BC073708BD3D09
:101CC0003808BE3D3908BF3D4708B600B701B80126
:101CD000B9013608C2073708C33D3808C43D390882
:101CE000C53D3008A00032089531C3258D31200054
:101CF0002108C7002008C6004608B600B701B80191
:101D0000B9013608BC073708BD3D3808BE3D390863
:101D1000BF3D4708B600B701B801B9013608C20790
:101D20003708C33D3808C43D3908C53D0830BC35C7
:101D3000BD0DBE0DBF0D890B972E2F08A0003208D8
:101D40009531C3258D3120002108C7002008C60029
:101D50004608BC074708BD3D0030BE3DBF3D2E08CC
:101D6000A00033089531C3258D3120002108C7001C
:101D70002008C6004608BC074708BD3D0030BE3DF0
:101D8000BF3D0830BC35BD0DBE0DBF0D890BC22E49
:101D90002E08A00032089531C3258D31200021087E
:101DA000C7002008C6004608BC074708BD3D0030F4
:101DB000BE3DBF3D2F08A00034089531C3258D31AD
:101DC00020002108C7002008C6004608C2074708AF
:101DD000C33D0030C43DC53D3008A00033089531F7
:101DE000C3258D3120002108C7002008C600460801
:101DF000C2074708C33D0030C43DC53D3008A000C0
:101E000034089531C3258D3120002108C7002008F2
:101E1000C6004608B6004708B700B801B901083047
:101E2000B635B70DB80DB90D890B102F3608C2079E
:101E30003708C33D3808C43D3908C53D3C08B600E5
:101E40003D08B7003E08B8003F08B9001830B93661
:101E5000B80CB70CB60C890B272F3608C207370809
:101E6000C33D3808C43D3908C53D0830BC35BD0DFB
:101E7000BE0DBF0D890B362F41084007B600B701D4
:101E8000B70D3608823EC600FF30373DC7005F2FD2
:101E90000130C235C30DC40DC50D890B492FBF1FBD
:101EA000522F532F542F42140130BC35BD0DBE0D9F
:101EB000BF0D890B552FFF30C607FF30C73DC41F2C
:101EC000622F632F482FC001BF1F672F682F842FF9
:101ED000FF303C05B600FF303D05B700FF303E0542
:101EE000B8007F303F05B90039083804370436049C
:101EF00003197B2F7C2F7F2FC001C00A842F421C27
:101F0000822F832F842F7C2F40080319882F892F3D
:101F1000B12F0130C2070030C33D0030C43D003056
:101F2000C53D451C942F952FB12F4208B60043089C
:101F3000B7004408B8004508B9000130BA00B93705
:101F4000B80CB70CB60CBA0B9F2F3908C50038086F
:101F5000C4003708C3003608C2000130C60700308D
:101F6000C73D4708803AB60080303602031DBA2FBD
:101F7000FF304602031CBD2FBE2FC82F7F3020002C
:101F8000C5008030C4000030C3000030C200F32F11
:101F900020004708803AB60080303602031DD22F59
:101FA000013046020318D52FD62FE12F0030200034
:101FB000C5000030C4000030C3000030C200BB01C7
:101FC000F32F20004608C100FF30C205FF30C305D3
:101FD0007F30C4050030C505411CEF2FF02FF12FD5
:101FE000C4174136C5003B08B6003608C50445088D
:101FF000B1004408B0004308AF004208AE0008003A
:10240A0008000800080008000800080008003B004F
:10241A009F1708003B00AF17080020001A14080095
:10242A003B00BF1708009331F723923108002300BD
:10243A001D121D1608001630210099000800B83434
:10244A000B34B8340B3494311024923171082200C1
:10245A00C7007008C6000800943110249231710830
:10246A002200CD007008CC000800200021083B00A3
:10247A009400200020083B00930008002000210857
:10248A003B00A400200020083B00A3000800200015
:10249A0021082200DB00200020082200DA000800C0
:1024AA00200021082200CF00200020082200CE00B0
:1024BA000800200021082200D30020002008220062
:1024CA00D2000800200021082200D10020002008A4
:1024DA002200D0000800200021082200D500200098
:1024EA0020082200D4000800200021082200D7007A
:1024FA00200020082200D60008002000210822001F
:10250A00E400200020082200E3000800200021083F
:10251A002200E200200020082200E100080020003A
:10252A0021082200E000200020082200DF00080025
:10253A00200021082200DE00200020082200DD0001
:10254A000800200021082200BB00200020082200E9
:10255A00BA000800200021082200BD00200020083F
:10256A002200BC000800200021083B00B400200023
:10257A0020083B00B300080090302C009600FF3082
:10258A009500C0309400FC3025009F05080090306B
:10259A002C009900FF309800C0309700F3302500D6
:1025AA009F05080090302C009C00FF309B00C03033
:1025BA009A00CF3025009F050800703021009B004B
:1025CA0080309C009A019D011C1FEC2AED2AE92A01
:1025DA000800200023082204210420040319F62AF3
:1025EA00F72AF92A8030A306080022003A083B0499
:1025FA000319002B012B062B3B088A003A080A0014
:10260A009331080022003C083D0403190D2B0E2BC0
:10261A00132B3D088A003C080A0093310800200069
:10262A00141121006908F1006808F00093319A2317
:10263A0093319231FA2293310800200014122100BA
:10264A006B08F1006A08F0009331AB2393319331A0
:10265A000723933108002000111322005A085B0453
:10266A000319382B392B3E2B5B088A005A080A00BB
:10267A00933108002200630864040319452B462B92
:10268A004B2B64088A0063080A009331270016104E
:10269A0008002200610862040319542B552B5A2B97
:1026AA0062088A0061080A00933127009610080020
:1026BA0022005F0860040319632B642B692B6008EE
:1026CA008A005F080A0093312700191108002200C6
:1026DA005D085E040319722B732B782B5E088A003F
:1026EA005D080A009331270099110800013029007A
:1026FA009700203096009801FF3094009301200043
:10270A009110D03029009500080020009B01990102
:10271A009801111019082200D90020001808220077
:10272A00D800113020009A00080020001E1D9E2BA0
:10273A009F2BA62B1E1071089D0070089C001E146A
:10274A00AA2B71089D0070089C0008002800111D22
:10275A00AF2BB02BB72B11107108900070088F00A7
:10276A001114BB2B7108900070088F0008007F308D
:10277A002000A700FF30A600FF30A500FF30A4000C
:10278A002708A3002608A2002508A1002408A00003
:10279A000800A0302900910092018E018F010130BA
:1027AA0090002100111705302000A0001230A1006E
:1027BA0092314C22933108003B00BC01BD01BE019D
:1027CA00BF01C001B201B1017D30B400B3017D3057
:1027DA00B600B501B8013F30B700BA01B90190306F
:1027EA00BB0008007D08283E8600013087002300D0
:1027FA00190881000130F0007008FD0708307D02D9
:10280A00031C082C092C0A2CFD010130F000700869
:10281A002100EC07080020001808FA001908F9003E
:10282A007A08F200F3017908F400F5017408F5005A
:10283A00F40172087404F70073087504F800780844
:10284A00F1007708F00008003B00AC01AD01403010
:10285A00AE00AF01B001A201A1010B30A400B73054
:10286A00A3009C30A6003F30A500A8010330A700B2
:10287A00AA01A9018030AB00080020002108A300AA
:10288A002008A200A336A20CA336A20C22082C0010
:10289A009800200020080339A2000530A235FF3E27
:1028AA00031D532C22352C00970008002000210814
:1028BA00A3002008A200A336A20CA336A20C220869
:1028CA002C009500200020080339A2000530A2350B
:1028DA00FF3E031D6C2C22352C00940008002000BA
:1028EA002108A3002008A200A336A20CA336A20C3A
:1028FA0022082C009B00200020080339A200053082
:10290A00A235FF3E031D852C22352C009A000800B3
:10291A003B009C019D0140309E0001309F00013028
:10292A00A000920191010B309400B73093009C30C3
:10293A0096003F3095009801033097009A0199015B
:10294A0080309B00080020009F01FF309D00FF306F
:10295A009C0014111D082100E90020001C08210018
:10296A00E800141500302000A0000830A1009231C0
:10297A00A6229431413020009E00080028009201CE
:10298A00FF309000FF308F0020001412280010083A
:10299A002100EB0028000F082100EA00141603307A
:1029AA002000A0000030A1009231AF2294314130C2
:1029BA0028009100080094311024943171082200F3
:1029CA00C5007008C4004508803AFB004708803AF1
:1029DA007B02031DF22C460844020318F52CF62C40
:1029EA00F72CFE2C220046084402C2004708453B49
:1029FA00C300080094311024943171082200CB00DE
:102A0A007008CA004B08803AFB004D08803A7B02E6
:102A1A00031D112D4C084A020318142D152D162DCD
:102A2A001D2D22004C084A02C8004D084B3BC90024
:102A3A0008002000AD01AE01291C242D252D292DC9
:102A4A002B08AD072C08AE3D0130AB35AC0D890B18
:102A5A002A2D0130AA36A90C890B2F2D29082A0400
:102A6A00031D382D392D212D2E08AA002D08A90065
:102A7A0008002700161C422D432D462D93313F2373
:102A8A0095312700961C4A2D4B2D4E2D93314E23FE
:102A9A0095312700191D522D532D562D93315D2343
:102AAA0095312700991D5A2D5B2D5E2D93316C238C
:102ABA009531080001302000AF00FC30B00096319B
:102ACA001526953101302000AF00FC30B000963158
:102ADA0085269531FF302000AF000330B0009731D2
:102AEA009C279531FF302000AF000330B0009631AB
:102AFA004D2695310800FF302000AF000330B000AA
:102B0A00963115269531FF302000AF000330B00012
:102B1A0096318526953101302000AF00FC30B00097
:102B2A0097319C27953101302000AF00FC30B0006E
:102B3A0096314D2695310800083021006D020318A0
:102B4A00A72DA82DC12D6E08303E860001308700C2
:102B5A00010823009A000130F00070082100EE07F6
:102B6A0008306E02031CBA2DBB2DBC2DEE010130BC
:102B7A00F0007008ED07C22D111208002000A8000D
:102B8A00A401A5012008A200A3012208A600230887
:102B9A00A700281CD12DD22DD62D2608A407270838
:102BAA00A53D0130A635A70D890BD72D0310A80C1A
:102BBA002808031DE12DE22DCE2D2508A1002408A9
:102BCA00A00008008831072095319231E222953120
:102BDA009231202295319331E12395319231CC22E1
:102BEA00953193317B239531943129249531933151
:102BFA00CE2395319431A82495319231C122953151
:102C0A0094318D2495319431C324953193318A239B
:102C1A0095319231D72295319631FA2695310800AD
:102C2A0020003008803AB10080303102031D1F2E87
:102C3A0001302F02031C222E232E2F2E22008E1348
:102C4A000E1720003008A1002F08A000943142245A
:102C5A0096314C2E2000B01F332E342E482EFF30D2
:102C6A00A900FF30AA003008AC002F08AB0095314C
:102C7A001E25963120002A08B0002908AF0022003C
:102C8A008E170E13262E22008E170E17262E0800D8
:102C9A0020003008803AB10080303102031D572EDF
:102CAA0001302F02031C5A2E5B2E672E22008F172B
:102CBA000F1320003008A1002F08A00094315B24D4
:102CCA009631842E2000B01F6B2E6C2E802EFF3082
:102CDA00A900FF30AA003008AC002F08AB009531DC
:102CEA001E25963120002A08B0002908AF002200CC
:102CFA008F130F175E2E22008F170F175E2E0800F4
:102D0A0020003008803AB10080303102031D8F2E36
:102D1A0001302F02031C922E932E9F2E22008D111A
:102D2A000D1520003008A1002F08A000943174244A
:102D3A009631BC2E2000B01FA32EA42EB82EFF3031
:102D4A00A900FF30AA003008AC002F08AB0095316B
:102D5A001E25963120002A08B0002908AF0022005B
:102D6A008D150D11962E22008D150D15962E080023
:102D7A007D08203E860001308700810123001D1D49
:102D8A00C72EC82ED42E7D08203E8600013087002B
:102D9A008114220053088A0052080A00963123003F
:102DAA009D1CD82ED92EE52E7D08203E86000130A6
:102DBA0087000115220051088A0050080A0096313E
:102DCA007D08203E86000130870001080319EE2E97
:102DDA00EF2EF62E22004F088A004E080A0096317E
:102DEA00F92E9331F7239631080021009112BD3054
:102DFA002000A0001630A1009231702296312100E5
:102E0A001112A1302000A0001530A10092317922C0
:102E1A009631083023009F0090309D0024309E0098
:102E2A0044309B009C0106302000A0001230A10013
:102E3A0092315E2296311C302000A0001230A1008F
:102E4A0092316722963118302000A0001230A1007A
:102E5A009231552296312200DC012100EF01EE0168
:102E6A000830ED00FD01FC01EC019116080020007C
:102E7A00A601A11F412F422F492FA009A109A00A8B
:102E8A000319A10AA601A60AA31F4C2F4D2F562FDC
:102E9A00A209A309A20A0319A30A0130A40024085B
:102EAA00A606A701A8012008210403195D2F5E2F99
:102EBA008D2FA501A50A6A2F0130A035A10D890B16
:102ECA00622F0130A4002408A507A11F6D2F6E2FC1
:102EDA00612F0130A735A80D890B6F2F2108230216
:102EEA00031D792F20082202031C7C2F7D2F822F9D
:102EFA002008A2022108A33B27140130A136A00C06
:102F0A00890B832F0130A502031D8C2F8D2F6E2F65
:102F1A0026080319912F922F972FA709A809A70A04
:102F2A000319A80A2808A1002708A0000800200001
:102F3A003008803AB10080303102031DA62F0130DB
:102F4A002F02031CA92FAA2FD62FFF302000A00082
:102F5A000330A1003008A3002F08A20097313C27B4
:102F6A00973120002108AA002008A9000030AB00F0
:102F7A007D30AC0095311E25973120002A08B0001B
:102F8A002908AF0022008E160E1220003008A10078
:102F9A002F08A0009231B822973192311522973129
:102FAA00FF2F2000B01FDA2FDB2FFB2FFF30A000EE
:102FBA000330A1003008A3002F08A20097313C2754
:102FCA00973120002108AA002008A9000030AB0090
:102FDA008330AC0095311E25973120002A08B000B5
:102FEA002908AF0022008E120E16CA2F22008E1652
:102FFA000E16CA2F080060344234A2340D3400344D
:020000040001F9
:08000000FF3FFF3FFF3FFF3F00
:04000E00E43FFF1FAD
:00000001FF
